{"abi":[{"type":"function","name":"increment","inputs":[],"outputs":[],"stateMutability":"nonpayable"},{"type":"function","name":"number","inputs":[],"outputs":[{"name":"","type":"uint256","internalType":"uint256"}],"stateMutability":"view"},{"type":"function","name":"setNumber","inputs":[{"name":"newNumber","type":"uint256","internalType":"uint256"}],"outputs":[],"stateMutability":"nonpayable"}],"bytecode":{"object":"0x608080604052346100155760df908161001b8239f35b600080fdfe6080806040526004361015601257600080fd5b600090813560e01c9081633fb5c1cb1460915781638381f58a146075575063d09de08a14603e57600080fd5b346072578060031936011260725780546000198114605e57600101815580f35b634e487b7160e01b82526011600452602482fd5b80fd5b905034608d5781600319360112608d57602091548152f35b5080fd5b82346072576020366003190112607257600435815580f3fea26469706673582212206c0107559cf546a92be437e9a1098619edbf2645613828f9ba92ed324d4ac32064736f6c63430008180033","linkReferences":{}},"methodIdentifiers":{"increment()":"d09de08a","number()":"8381f58a","setNumber(uint256)":"3fb5c1cb"},"id":41}