{"abi":[{"type":"constructor","inputs":[],"stateMutability":"nonpayable"},{"type":"function","name":"addDurbar","inputs":[{"name":"durbarName","type":"string","internalType":"string"},{"name":"baseToken","type":"address","internalType":"address"},{"name":"wrapToken","type":"address","internalType":"address"},{"name":"liqToken","type":"address","internalType":"address"},{"name":"feeRateToWrappers100","type":"uint256","internalType":"uint256"},{"name":"feeRateToLPsIn100","type":"uint256","internalType":"uint256"},{"name":"feeRateToDevIn100","type":"uint256","internalType":"uint256"}],"outputs":[],"stateMutability":"nonpayable"},{"type":"function","name":"stakeLiq","inputs":[{"name":"durbarName","type":"string","internalType":"string"},{"name":"amount","type":"uint256","internalType":"uint256"}],"outputs":[],"stateMutability":"nonpayable"},{"type":"function","name":"supportedDurbars","inputs":[{"name":"","type":"string","internalType":"string"}],"outputs":[{"name":"baseToken","type":"address","internalType":"address"},{"name":"wrapToken","type":"address","internalType":"address"},{"name":"liqToken","type":"address","internalType":"address"},{"name":"balanceBaseToken","type":"uint256","internalType":"uint256"},{"name":"mintedWrap","type":"uint256","internalType":"uint256"},{"name":"accumulatedLPfees","type":"uint256","internalType":"uint256"},{"name":"accumulatedDevfees","type":"uint256","internalType":"uint256"},{"name":"feeRateToWrappers100","type":"uint256","internalType":"uint256"},{"name":"feeRateToLPsIn100","type":"uint256","internalType":"uint256"},{"name":"feeRateToDevIn100","type":"uint256","internalType":"uint256"},{"name":"exists","type":"bool","internalType":"bool"},{"name":"t","type":"uint256","internalType":"uint256"},{"name":"s","type":"uint256","internalType":"uint256"}],"stateMutability":"view"},{"type":"function","name":"unStakeLiq","inputs":[{"name":"durbarName","type":"string","internalType":"string"},{"name":"amount","type":"uint256","internalType":"uint256"}],"outputs":[],"stateMutability":"nonpayable"},{"type":"function","name":"unwrapDurbar","inputs":[{"name":"durbarName","type":"string","internalType":"string"},{"name":"amount","type":"uint256","internalType":"uint256"}],"outputs":[],"stateMutability":"nonpayable"},{"type":"function","name":"wrapDurbar","inputs":[{"name":"durbarName","type":"string","internalType":"string"},{"name":"amount","type":"uint256","internalType":"uint256"}],"outputs":[],"stateMutability":"nonpayable"},{"type":"error","name":"MathOverflowedMulDiv","inputs":[]}],"bytecode":{"object":"0x608060405234801561001057600080fd5b50600080546001600160a01b0319163317905561144e806100326000396000f3fe608060405234801561001057600080fd5b50600436106100625760003560e01c80634c1636c114610067578063550a03d31461007c5780636273cd9b1461008f578063709e45d6146100a25780638909c4ce146101ae578063ec4603ec146101c1575b600080fd5b61007a6100753660046111fa565b6101d4565b005b61007a61008a366004611284565b610342565b61007a61009d366004611284565b610616565b6101386100b03660046112c9565b805160208183018101805160018083529383019290940191909120929052815490820154600283015460038401546004850154600586015460068701546007880154600889015460098a0154600a8b0154600b8c0154600c909c01546001600160a01b039b8c169c9a8c169b90991699979896979596949593949293919260ff90911691908d565b604080516001600160a01b039e8f1681529c8e1660208e01529a909c168b8b015260608b019890985260808a019690965260a089019490945260c088019290925260e087015261010086015261012085015215156101408401526101608301526101808201929092529051908190036101a00190f35b61007a6101bc366004611284565b6108a2565b61007a6101cf366004611284565b610d0a565b6000604051806101a00160405280886001600160a01b03168152602001876001600160a01b03168152602001866001600160a01b03168152602001600081526020016000815260200160008152602001600081526020018581526020018481526020018381526020016001151581526020016000815260200160008152509050806001896040516102659190611306565b9081526040805160209281900383019020835181546001600160a01b03199081166001600160a01b0392831617835593850151600183018054861691831691909117905591840151600282018054909416921691909117909155606082015160038201556080820151600482015560a0820151600582015560c0820151600682015560e0820151600782015561010082015160088201556101208201516009820155610140820151600a8201805460ff1916911515919091179055610160820151600b82015561018090910151600c909101555050505050505050565b6001826040516103529190611306565b908152604051908190036020019020600a015460ff1661038d5760405162461bcd60e51b815260040161038490611335565b60405180910390fd5b60038260405161039d9190611306565b90815260408051602092819003830190203360009081529252902054156104105760405162461bcd60e51b815260206004820152602160248201527f4e6565647320756e7374616b65206265666f72652072657374616b65202873306044820152602960f81b6064820152608401610384565b6002826040516104209190611306565b90815260408051602092819003830190203360009081529252902054156104a75760405162461bcd60e51b815260206004820152603560248201527f4e6565647320756e7374616b65206265666f72652072657374616b6520287374604482015274616b65644c6971546f6b656e42616c616e6365732960581b6064820152608401610384565b60006001836040516104b99190611306565b908152604051908190036020018120600201546323b872dd60e01b8252336004830152306024830152604482018490526001600160a01b0316915081906323b872dd906064016020604051808303816000875af115801561051e573d6000803e3d6000fd5b505050506040513d601f19601f820116820180604052508101906105429190611365565b50816002846040516105549190611306565b90815260408051918290036020908101832033600090815291522091909155600190610581908590611306565b9081526020016040518091039020600c01546003846040516105a39190611306565b9081526040805191829003602090810183203360009081529152209190915582906001906105d2908690611306565b9081526020016040518091039020600b01546105ee919061139d565b6001846040516105fe9190611306565b908152604051908190036020019020600b0155505050565b6001826040516106269190611306565b908152604051908190036020019020600a015460ff166106585760405162461bcd60e51b815260040161038490611335565b600060018360405161066a9190611306565b908152604051908190036020018120546323b872dd60e01b8252336004830152306024830152604482018490526001600160a01b0316915081906323b872dd906064016020604051808303816000875af11580156106cc573d6000803e3d6000fd5b505050506040513d601f19601f820116820180604052508101906106f09190611365565b50816001846040516107029190611306565b90815260200160405180910390206003015461071e919061139d565b60018460405161072e9190611306565b90815260200160405180910390206003018190555060006001846040516107559190611306565b9081526020016040518091039020600401546000036107755750816107c5565b6107c2836001866040516107899190611306565b9081526020016040518091039020600401546001876040516107ab9190611306565b908152602001604051809103902060030154611076565b90505b806001856040516107d69190611306565b9081526020016040518091039020600401546107f2919061139d565b6001856040516108029190611306565b90815260200160405180910390206004018190555060006001856040516108299190611306565b908152604051908190036020018120600101546340c10f1960e01b8252336004830152602482018490526001600160a01b0316915081906340c10f1990604401600060405180830381600087803b15801561088357600080fd5b505af1158015610897573d6000803e3d6000fd5b505050505050505050565b6001826040516108b29190611306565b908152604051908190036020019020600a015460ff166108e45760405162461bcd60e51b815260040161038490611335565b60006001836040516108f69190611306565b9081526040519081900360200181206001015463079cc67960e41b8252336004830152602482018490526001600160a01b0316915081906379cc679090604401600060405180830381600087803b15801561095057600080fd5b505af1158015610964573d6000803e3d6000fd5b5050505060006109b78360018660405161097e9190611306565b9081526020016040518091039020600301546001876040516109a09190611306565b908152602001604051809103902060040154611076565b905060006109e9826001876040516109cf9190611306565b908152602001604051809103902060070154612710611076565b90506000610a1b83600188604051610a019190611306565b908152602001604051809103902060080154612710611076565b90506000610a4d84600189604051610a339190611306565b908152602001604051809103902060090154612710611076565b9050610a5983856113b6565b600188604051610a699190611306565b908152602001604051809103902060030154610a8591906113b6565b600188604051610a959190611306565b90815260200160405180910390206003018190555080600188604051610abb9190611306565b908152602001604051809103902060060154610ad7919061139d565b600188604051610ae79190611306565b90815260200160405180910390206006018190555081600188604051610b0d9190611306565b908152602001604051809103902060050154610b29919061139d565b600188604051610b399190611306565b908152602001604051809103902060050181905550600187604051610b5e9190611306565b9081526020016040518091039020600b0154600003610bcc5781600188604051610b889190611306565b9081526020016040518091039020600c0154610ba4919061139d565b600188604051610bb49190611306565b908152604051908190036020019020600c0155610c49565b600187604051610bdc9190611306565b9081526020016040518091039020600b015482610bf991906113df565b600188604051610c099190611306565b9081526020016040518091039020600c0154610c25919061139d565b600188604051610c359190611306565b908152604051908190036020019020600c01555b600081610c56848661139d565b610c60919061139d565b610c6a90866113b6565b90506000600189604051610c7e9190611306565b9081526040519081900360200181205463a9059cbb60e01b8252336004830152602482018490526001600160a01b03169150819063a9059cbb906044016020604051808303816000875af1158015610cda573d6000803e3d6000fd5b505050506040513d601f19601f82011682018060405250810190610cfe9190611365565b50505050505050505050565b600182604051610d1a9190611306565b908152604051908190036020019020600a015460ff16610d4c5760405162461bcd60e51b815260040161038490611335565b6000600283604051610d5e9190611306565b9081526040805160209281900383019020336000908152925290205411610db95760405162461bcd60e51b815260206004820152600f60248201526e2737ba3434b7339039ba30b5b2b21760891b6044820152606401610384565b6000600283604051610dcb9190611306565b908152604080516020928190038301902033600090815292529020549050818114610e305760405162461bcd60e51b815260206004820152601560248201527421b0b71037b7363c903ab739ba30b5b29030b6361760591b6044820152606401610384565b6000600384604051610e429190611306565b9081526040805191829003602090810183203360009081529152205490600190610e6d908790611306565b9081526020016040518091039020600c0154610e8991906113b6565b610e939083611401565b905081600185604051610ea69190611306565b9081526020016040518091039020600b0154610ec291906113b6565b600185604051610ed29190611306565b9081526020016040518091039020600b01819055506000600285604051610ef99190611306565b908152604080519182900360209081018320336000908152915290812092909255600390610f28908790611306565b908152604080519182900360209081018320336000908152915290812092909255600190610f57908790611306565b9081526040519081900360200181205463a9059cbb60e01b8252336004830152602482018490526001600160a01b03169150819063a9059cbb906044016020604051808303816000875af1158015610fb3573d6000803e3d6000fd5b505050506040513d601f19601f82011682018060405250810190610fd79190611365565b506000600186604051610fea9190611306565b9081526040519081900360200181206002015463a9059cbb60e01b8252336004830152602482018690526001600160a01b03169150819063a9059cbb906044016020604051808303816000875af1158015611049573d6000803e3d6000fd5b505050506040513d601f19601f8201168201806040525081019061106d9190611365565b50505050505050565b60008383028160001985870982811083820303915050806000036110ad578382816110a3576110a36113c9565b0492505050611134565b8084116110cd5760405163227bc15360e01b815260040160405180910390fd5b6000848688096000868103871696879004966002600389028118808a02820302808a02820302808a02820302808a02820302808a02820302808a02909103029181900381900460010186841190950394909402919094039290920491909117919091029150505b9392505050565b634e487b7160e01b600052604160045260246000fd5b600082601f83011261116257600080fd5b813567ffffffffffffffff8082111561117d5761117d61113b565b604051601f8301601f19908116603f011681019082821181831017156111a5576111a561113b565b816040528381528660208588010111156111be57600080fd5b836020870160208301376000602085830101528094505050505092915050565b80356001600160a01b03811681146111f557600080fd5b919050565b600080600080600080600060e0888a03121561121557600080fd5b873567ffffffffffffffff81111561122c57600080fd5b6112388a828b01611151565b975050611247602089016111de565b9550611255604089016111de565b9450611263606089016111de565b9699959850939660808101359560a0820135955060c0909101359350915050565b6000806040838503121561129757600080fd5b823567ffffffffffffffff8111156112ae57600080fd5b6112ba85828601611151565b95602094909401359450505050565b6000602082840312156112db57600080fd5b813567ffffffffffffffff8111156112f257600080fd5b6112fe84828501611151565b949350505050565b6000825160005b81811015611327576020818601810151858301520161130d565b506000920191825250919050565b602080825260169082015275223ab93130b9103237b2b9903737ba1032bc34b9ba1760511b604082015260600190565b60006020828403121561137757600080fd5b8151801515811461113457600080fd5b634e487b7160e01b600052601160045260246000fd5b808201808211156113b0576113b0611387565b92915050565b818103818111156113b0576113b0611387565b634e487b7160e01b600052601260045260246000fd5b6000826113fc57634e487b7160e01b600052601260045260246000fd5b500490565b80820281158282048414176113b0576113b061138756fea26469706673582212209aee0b82264f9126ff797676bbee1fb8c0b41738d17b787f3ba6e78bebd9b1ff64736f6c63430008180033","linkReferences":{}},"methodIdentifiers":{"addDurbar(string,address,address,address,uint256,uint256,uint256)":"4c1636c1","stakeLiq(string,uint256)":"550a03d3","supportedDurbars(string)":"709e45d6","unStakeLiq(string,uint256)":"ec4603ec","unwrapDurbar(string,uint256)":"8909c4ce","wrapDurbar(string,uint256)":"6273cd9b"},"id":19}