{"abi":[{"type":"function","name":"DOMAIN_SEPARATOR","inputs":[],"outputs":[{"name":"","type":"bytes32","internalType":"bytes32"}],"stateMutability":"view"},{"type":"function","name":"allowance","inputs":[{"name":"","type":"address","internalType":"address"},{"name":"","type":"address","internalType":"address"}],"outputs":[{"name":"","type":"uint256","internalType":"uint256"}],"stateMutability":"view"},{"type":"function","name":"approve","inputs":[{"name":"spender","type":"address","internalType":"address"},{"name":"amount","type":"uint256","internalType":"uint256"}],"outputs":[{"name":"","type":"bool","internalType":"bool"}],"stateMutability":"nonpayable"},{"type":"function","name":"balanceOf","inputs":[{"name":"","type":"address","internalType":"address"}],"outputs":[{"name":"","type":"uint256","internalType":"uint256"}],"stateMutability":"view"},{"type":"function","name":"decimals","inputs":[],"outputs":[{"name":"","type":"uint8","internalType":"uint8"}],"stateMutability":"view"},{"type":"function","name":"initialize","inputs":[{"name":"_name","type":"string","internalType":"string"},{"name":"_symbol","type":"string","internalType":"string"},{"name":"_decimals","type":"uint8","internalType":"uint8"}],"outputs":[],"stateMutability":"nonpayable"},{"type":"function","name":"name","inputs":[],"outputs":[{"name":"","type":"string","internalType":"string"}],"stateMutability":"view"},{"type":"function","name":"nonces","inputs":[{"name":"","type":"address","internalType":"address"}],"outputs":[{"name":"","type":"uint256","internalType":"uint256"}],"stateMutability":"view"},{"type":"function","name":"permit","inputs":[{"name":"owner","type":"address","internalType":"address"},{"name":"spender","type":"address","internalType":"address"},{"name":"value","type":"uint256","internalType":"uint256"},{"name":"deadline","type":"uint256","internalType":"uint256"},{"name":"v","type":"uint8","internalType":"uint8"},{"name":"r","type":"bytes32","internalType":"bytes32"},{"name":"s","type":"bytes32","internalType":"bytes32"}],"outputs":[],"stateMutability":"nonpayable"},{"type":"function","name":"symbol","inputs":[],"outputs":[{"name":"","type":"string","internalType":"string"}],"stateMutability":"view"},{"type":"function","name":"totalSupply","inputs":[],"outputs":[{"name":"","type":"uint256","internalType":"uint256"}],"stateMutability":"view"},{"type":"function","name":"transfer","inputs":[{"name":"to","type":"address","internalType":"address"},{"name":"amount","type":"uint256","internalType":"uint256"}],"outputs":[{"name":"","type":"bool","internalType":"bool"}],"stateMutability":"nonpayable"},{"type":"function","name":"transferFrom","inputs":[{"name":"from","type":"address","internalType":"address"},{"name":"to","type":"address","internalType":"address"},{"name":"amount","type":"uint256","internalType":"uint256"}],"outputs":[{"name":"","type":"bool","internalType":"bool"}],"stateMutability":"nonpayable"},{"type":"event","name":"Approval","inputs":[{"name":"owner","type":"address","indexed":true,"internalType":"address"},{"name":"spender","type":"address","indexed":true,"internalType":"address"},{"name":"amount","type":"uint256","indexed":false,"internalType":"uint256"}],"anonymous":false},{"type":"event","name":"Transfer","inputs":[{"name":"from","type":"address","indexed":true,"internalType":"address"},{"name":"to","type":"address","indexed":true,"internalType":"address"},{"name":"amount","type":"uint256","indexed":false,"internalType":"uint256"}],"anonymous":false}],"bytecode":{"object":"0x6080806040523461001657610e8d908161001c8239f35b600080fdfe608060408181526004918236101561001657600080fd5b600092833560e01c91826306fdde0314610a4c57508163095ea7b3146109db5781631624f6c61461068d57816318160ddd1461066e57816323b872dd1461058e578163313ce5671461056c5781633644e5151461054857816370a08231146105125781637ecebe00146104da57816395d89b41146103f4578163a9059cbb14610361578163d505accf146100ff575063dd62ed3e146100b457600080fd5b346100fb57806003193601126100fb57806020926100d0610b98565b6100d8610bb3565b6001600160a01b0391821683526005865283832091168252845220549051908152f35b5080fd5b90503461035d5760e036600319011261035d5761011a610b98565b610122610bb3565b9260443590606435936084359360ff85168095036103595742861061031657610149610c20565b9660018060a01b0380921696878a5260209660088852858b20998a549a6000198c146103035760018c019055865192858a8501957f6e71edae12b1b97f4d1f60370fef10105fa2faae0126114a169c64845d6126c987528c8a870152169b8c606086015289608086015260a085015260c084015260c0835260e0830167ffffffffffffffff94848210868311176102f0578189528451902061010085019261190160f01b845261010286015261012285015260428152610160840194818610908611176102dd57848852519020835261018082015260a4356101a082015260c4356101c0909101528880528590899060809060015afa156102d35787511690811515806102ca575b1561029657508652600583528086208587528352808620829055519081527f8c5be1e5ebec7d5bd14f71427d1e84f3dd0314c0f7b2291e5b200ac8c7c3b9259190a380f35b825162461bcd60e51b8152908101859052600e60248201526d24a72b20a624a22fa9a4a3a722a960911b6044820152606490fd5b50858214610251565b82513d89823e3d90fd5b634e487b7160e01b8d526041875260248dfd5b634e487b7160e01b8e526041885260248efd5b634e487b7160e01b8d526011875260248dfd5b506020606492519162461bcd60e51b8352820152601760248201527f5045524d49545f444541444c494e455f455850495245440000000000000000006044820152fd5b8780fd5b8280fd5b90503461035d578160031936011261035d579160209261037f610b98565b9083602435923385528287526103988483872054610d6f565b3386528388528286205560018060a01b0316938481526103bb8483832054610dde565b928582528752205582519081527fddf252ad1be2c89b69c2b068fc378daa952ba7f163c4a11628f55a4df523b3ef843392a35160018152f35b8284346104d757806003193601126104d75781519080600180549061041882610add565b80865292602092600181169081156104aa5750600114610452575b61044e868861044482890383610b17565b5191829182610b4f565b0390f35b9350600184527fb10e2d527612073b26eecdfd717e6a320cf44b4afac2b0732d9fcbe2b7fa0cf65b838510610497575050505081016020016104448261044e86610433565b805486860184015293820193810161047a565b905061044e9795508693506020925061044494915060ff191682840152151560051b820101929486610433565b80fd5b5050346100fb5760203660031901126100fb5760209181906001600160a01b03610502610b98565b1681526008845220549051908152f35b90503461035d57602036600319011261035d5760209282916001600160a01b0361053a610b98565b168252845220549051908152f35b5050346100fb57816003193601126100fb57602090610565610c20565b9051908152f35b5050346100fb57816003193601126100fb5760209060ff600254169051908152f35b8284346104d75760603660031901126104d7576105a9610b98565b927fddf252ad1be2c89b69c2b068fc378daa952ba7f163c4a11628f55a4df523b3ef6105d3610bb3565b60443560018060a01b038097169384865286602098899460058652828920338a5286528289205485600019820361064b575b505087895283865261061a85848b2054610d6f565b888a52848752838a205516968781526106368483832054610dde565b92888252855220558551908152a35160018152f35b61065491610d6f565b888a5260058752838a20338b528752838a20558b85610605565b5050346100fb57816003193601126100fb576020906003549051908152f35b839150346100fb5760603660031901126100fb5767ffffffffffffffff9281358481116109d7576106c19036908401610bc9565b936024358181116109d3576106d99036908501610bc9565b926044359260ff84168094036109cf5760ff600954166109965750855182811161098357806107088754610add565b97601f9889811161092a575b506020908983116001146108bb5788926108b0575b50508160011b916000199060031b1c19161785555b835191821161089d57506001926107558454610add565b86811161083b575b5060209582116001146107bd5794849582939495926107b2575b5050600019600383901b1c191690831b1782555b60ff1990816002541617600255466006556107a4610c3a565b600755600954161760095580f35b015190508580610777565b838552601f198216957fb10e2d527612073b26eecdfd717e6a320cf44b4afac2b0732d9fcbe2b7fa0cf691865b8881106108255750838697989695961061080c575b505050811b01825561078b565b015160001960f88460031b161c191690558580806107ff565b81830151845592860192602092830192016107ea565b8486527fb10e2d527612073b26eecdfd717e6a320cf44b4afac2b0732d9fcbe2b7fa0cf68780850160051c82019260208610610894575b0160051c019085905b82811061088957505061075d565b87815501859061087b565b92508192610872565b634e487b7160e01b855260419052602484fd5b015190508880610729565b888052600080516020610e388339815191529250601f198416895b81811061091257509084600195949392106108f9575b505050811b01855561073e565b015160001960f88460031b161c191690558880806108ec565b929360206001819287860151815501950193016108d6565b909150878052600080516020610e388339815191528980850160051c8201926020861061097a575b9085949392910160051c01905b81811061096c5750610714565b89815584935060010161095f565b92508192610952565b634e487b7160e01b865260418252602486fd5b906020606492519162461bcd60e51b835282015260136024820152721053149150511657d253925512505312569151606a1b6044820152fd5b8580fd5b8480fd5b8380fd5b5050346100fb57806003193601126100fb57602091816109f9610b98565b91602435918291338152600587528181209460018060a01b0316948582528752205582519081527f8c5be1e5ebec7d5bd14f71427d1e84f3dd0314c0f7b2291e5b200ac8c7c3b925843392a35160018152f35b839085346104d757806003193601126104d757805481610a6b82610add565b808552916020916001918281169081156104aa5750600114610a985761044e868861044482890383610b17565b8080955052600080516020610e388339815191525b838510610aca575050505081016020016104448261044e86610433565b8054868601840152938201938101610aad565b90600182811c92168015610b0d575b6020831014610af757565b634e487b7160e01b600052602260045260246000fd5b91607f1691610aec565b90601f8019910116810190811067ffffffffffffffff821117610b3957604052565b634e487b7160e01b600052604160045260246000fd5b6020808252825181830181905290939260005b828110610b8457505060409293506000838284010152601f8019910116010190565b818101860151848201604001528501610b62565b600435906001600160a01b0382168203610bae57565b600080fd5b602435906001600160a01b0382168203610bae57565b81601f82011215610bae5780359067ffffffffffffffff8211610b395760405192610bfe601f8401601f191660200185610b17565b82845260208383010111610bae57816000926020809301838601378301015290565b6006544603610c2f5760075490565b610c37610c3a565b90565b60405160009060005490610c4d82610add565b808252816020948582019460019087600182169182600014610d51575050600114610d09575b50610c8092500382610b17565b51902090604051908101917f8b73c3c69bb8fe3d512ecc4cf759cc79239f7b179b0ffacaa9a75d522b39400f835260408201527fc89efdaa54c0f20c7adf612882df0950f5a951637e0307cdcb4c672f298b8bc660608201524660808201523060a082015260a0815260c0810181811067ffffffffffffffff821117610b395760405251902090565b600080805287925090600080516020610e388339815191525b858310610d39575050610c80935082010138610c73565b80548388018501528694508893909201918101610d22565b60ff19168852610c8095151560051b8501019250389150610c739050565b90808210610d99578103908111610d835790565b634e487b7160e01b600052601160045260246000fd5b60405162461bcd60e51b815260206004820152601c60248201527f45524332303a207375627472616374696f6e20756e646572666c6f77000000006044820152606490fd5b90810190818111610d83578110610df25790565b60405162461bcd60e51b815260206004820152601860248201527f45524332303a206164646974696f6e206f766572666c6f7700000000000000006044820152606490fdfe290decd9548b62a8d60345a988386fc84ba6bc95484008f6362f93160ef3e563a2646970667358221220219559a47a4ea12a1af887932b93237ea5a2633ff36072579981da9f4617ba4464736f6c63430008180033","linkReferences":{}},"methodIdentifiers":{"DOMAIN_SEPARATOR()":"3644e515","allowance(address,address)":"dd62ed3e","approve(address,uint256)":"095ea7b3","balanceOf(address)":"70a08231","decimals()":"313ce567","initialize(string,string,uint8)":"1624f6c6","name()":"06fdde03","nonces(address)":"7ecebe00","permit(address,address,uint256,uint256,uint8,bytes32,bytes32)":"d505accf","symbol()":"95d89b41","totalSupply()":"18160ddd","transfer(address,uint256)":"a9059cbb","transferFrom(address,address,uint256)":"23b872dd"},"id":18}