{"abi":[{"type":"constructor","inputs":[{"name":"initialOwner","type":"address","internalType":"address"},{"name":"description","type":"string","internalType":"string"},{"name":"name","type":"string","internalType":"string"}],"stateMutability":"nonpayable"},{"type":"function","name":"DOMAIN_SEPARATOR","inputs":[],"outputs":[{"name":"","type":"bytes32","internalType":"bytes32"}],"stateMutability":"view"},{"type":"function","name":"allowance","inputs":[{"name":"owner","type":"address","internalType":"address"},{"name":"spender","type":"address","internalType":"address"}],"outputs":[{"name":"","type":"uint256","internalType":"uint256"}],"stateMutability":"view"},{"type":"function","name":"approve","inputs":[{"name":"spender","type":"address","internalType":"address"},{"name":"value","type":"uint256","internalType":"uint256"}],"outputs":[{"name":"","type":"bool","internalType":"bool"}],"stateMutability":"nonpayable"},{"type":"function","name":"balanceOf","inputs":[{"name":"account","type":"address","internalType":"address"}],"outputs":[{"name":"","type":"uint256","internalType":"uint256"}],"stateMutability":"view"},{"type":"function","name":"burn","inputs":[{"name":"value","type":"uint256","internalType":"uint256"}],"outputs":[],"stateMutability":"nonpayable"},{"type":"function","name":"burnFrom","inputs":[{"name":"account","type":"address","internalType":"address"},{"name":"value","type":"uint256","internalType":"uint256"}],"outputs":[],"stateMutability":"nonpayable"},{"type":"function","name":"decimals","inputs":[],"outputs":[{"name":"","type":"uint8","internalType":"uint8"}],"stateMutability":"view"},{"type":"function","name":"eip712Domain","inputs":[],"outputs":[{"name":"fields","type":"bytes1","internalType":"bytes1"},{"name":"name","type":"string","internalType":"string"},{"name":"version","type":"string","internalType":"string"},{"name":"chainId","type":"uint256","internalType":"uint256"},{"name":"verifyingContract","type":"address","internalType":"address"},{"name":"salt","type":"bytes32","internalType":"bytes32"},{"name":"extensions","type":"uint256[]","internalType":"uint256[]"}],"stateMutability":"view"},{"type":"function","name":"mint","inputs":[{"name":"to","type":"address","internalType":"address"},{"name":"amount","type":"uint256","internalType":"uint256"}],"outputs":[],"stateMutability":"nonpayable"},{"type":"function","name":"name","inputs":[],"outputs":[{"name":"","type":"string","internalType":"string"}],"stateMutability":"view"},{"type":"function","name":"nonces","inputs":[{"name":"owner","type":"address","internalType":"address"}],"outputs":[{"name":"","type":"uint256","internalType":"uint256"}],"stateMutability":"view"},{"type":"function","name":"owner","inputs":[],"outputs":[{"name":"","type":"address","internalType":"address"}],"stateMutability":"view"},{"type":"function","name":"permit","inputs":[{"name":"owner","type":"address","internalType":"address"},{"name":"spender","type":"address","internalType":"address"},{"name":"value","type":"uint256","internalType":"uint256"},{"name":"deadline","type":"uint256","internalType":"uint256"},{"name":"v","type":"uint8","internalType":"uint8"},{"name":"r","type":"bytes32","internalType":"bytes32"},{"name":"s","type":"bytes32","internalType":"bytes32"}],"outputs":[],"stateMutability":"nonpayable"},{"type":"function","name":"renounceOwnership","inputs":[],"outputs":[],"stateMutability":"nonpayable"},{"type":"function","name":"symbol","inputs":[],"outputs":[{"name":"","type":"string","internalType":"string"}],"stateMutability":"view"},{"type":"function","name":"totalSupply","inputs":[],"outputs":[{"name":"","type":"uint256","internalType":"uint256"}],"stateMutability":"view"},{"type":"function","name":"transfer","inputs":[{"name":"to","type":"address","internalType":"address"},{"name":"value","type":"uint256","internalType":"uint256"}],"outputs":[{"name":"","type":"bool","internalType":"bool"}],"stateMutability":"nonpayable"},{"type":"function","name":"transferFrom","inputs":[{"name":"from","type":"address","internalType":"address"},{"name":"to","type":"address","internalType":"address"},{"name":"value","type":"uint256","internalType":"uint256"}],"outputs":[{"name":"","type":"bool","internalType":"bool"}],"stateMutability":"nonpayable"},{"type":"function","name":"transferOwnership","inputs":[{"name":"newOwner","type":"address","internalType":"address"}],"outputs":[],"stateMutability":"nonpayable"},{"type":"event","name":"Approval","inputs":[{"name":"owner","type":"address","indexed":true,"internalType":"address"},{"name":"spender","type":"address","indexed":true,"internalType":"address"},{"name":"value","type":"uint256","indexed":false,"internalType":"uint256"}],"anonymous":false},{"type":"event","name":"EIP712DomainChanged","inputs":[],"anonymous":false},{"type":"event","name":"OwnershipTransferred","inputs":[{"name":"previousOwner","type":"address","indexed":true,"internalType":"address"},{"name":"newOwner","type":"address","indexed":true,"internalType":"address"}],"anonymous":false},{"type":"event","name":"Transfer","inputs":[{"name":"from","type":"address","indexed":true,"internalType":"address"},{"name":"to","type":"address","indexed":true,"internalType":"address"},{"name":"value","type":"uint256","indexed":false,"internalType":"uint256"}],"anonymous":false},{"type":"error","name":"ECDSAInvalidSignature","inputs":[]},{"type":"error","name":"ECDSAInvalidSignatureLength","inputs":[{"name":"length","type":"uint256","internalType":"uint256"}]},{"type":"error","name":"ECDSAInvalidSignatureS","inputs":[{"name":"s","type":"bytes32","internalType":"bytes32"}]},{"type":"error","name":"ERC20InsufficientAllowance","inputs":[{"name":"spender","type":"address","internalType":"address"},{"name":"allowance","type":"uint256","internalType":"uint256"},{"name":"needed","type":"uint256","internalType":"uint256"}]},{"type":"error","name":"ERC20InsufficientBalance","inputs":[{"name":"sender","type":"address","internalType":"address"},{"name":"balance","type":"uint256","internalType":"uint256"},{"name":"needed","type":"uint256","internalType":"uint256"}]},{"type":"error","name":"ERC20InvalidApprover","inputs":[{"name":"approver","type":"address","internalType":"address"}]},{"type":"error","name":"ERC20InvalidReceiver","inputs":[{"name":"receiver","type":"address","internalType":"address"}]},{"type":"error","name":"ERC20InvalidSender","inputs":[{"name":"sender","type":"address","internalType":"address"}]},{"type":"error","name":"ERC20InvalidSpender","inputs":[{"name":"spender","type":"address","internalType":"address"}]},{"type":"error","name":"ERC2612ExpiredSignature","inputs":[{"name":"deadline","type":"uint256","internalType":"uint256"}]},{"type":"error","name":"ERC2612InvalidSigner","inputs":[{"name":"signer","type":"address","internalType":"address"},{"name":"owner","type":"address","internalType":"address"}]},{"type":"error","name":"InvalidAccountNonce","inputs":[{"name":"account","type":"address","internalType":"address"},{"name":"currentNonce","type":"uint256","internalType":"uint256"}]},{"type":"error","name":"InvalidShortString","inputs":[]},{"type":"error","name":"OwnableInvalidOwner","inputs":[{"name":"owner","type":"address","internalType":"address"}]},{"type":"error","name":"OwnableUnauthorizedAccount","inputs":[{"name":"account","type":"address","internalType":"address"}]},{"type":"error","name":"StringTooLong","inputs":[{"name":"str","type":"string","internalType":"string"}]}],"bytecode":{"object":"0x610160604090808252346200049d576200199b8038038091620000238285620004a2565b833981016060828203126200049d5781516001600160a01b0390818116908190036200049d576020848101516001600160401b0395908681116200049d57856200006f918301620004eb565b94878201518781116200049d57620000889201620004eb565b95805192818401848110888211176200039c57825260019485855283850195603160f81b875287518981116200039c5760038054918383811c9316801562000492575b888410146200047c57601f9283811162000431575b508088848211600114620003be57600091620003b2575b5060001982841b1c191690841b1781555b8b51918b83116200039c5760049c8d548581811c9116801562000391575b8a8210146200037c578e83821162000331575b50508d89928511600114620002c65750938394918492600095620002ba575b50501b92600019911b1c19161789555b8115620002a357600580546001600160a01b031981168417909155167f8be0079c531659141344cd1fd0a4f28419497f9722a3daafe3b4186f6b6457e0600080a3620001b48562000546565b93610120948552620001c684620006ee565b95610140968752838151910120938460e05251902096610100978089524660a0528251938401947f8b73c3c69bb8fe3d512ecc4cf759cc79239f7b179b0ffacaa9a75d522b39400f86528385015260608401524660808401523060a084015260a0835260c0830196838810908811176200028e57508590525190206080523060c052611155938462000846853960805184610bf6015260a05184610cc2015260c05184610bc0015260e05184610c4501525183610c6b0152518261049b015251816104c50152f35b604190634e487b7160e01b6000525260246000fd5b8251631e4fbdf760e01b81526000818b0152602490fd5b01519350388062000158565b929190601f19851693600052848a6000209460005b8c89838310620003195750505010620002fe575b50505050811b01895562000168565b01519060f884600019921b161c1916905538808080620002ef565b868601518955909701969485019488935001620002db565b600052896000208380870160051c8201928c881062000372575b0160051c019086905b828110620003655750508e62000139565b6000815501869062000354565b925081926200034b565b60228f634e487b7160e01b6000525260246000fd5b90607f169062000126565b634e487b7160e01b600052604160045260246000fd5b90508b015138620000f7565b8592508c90601f198316856000528b600020928c6000915b8383106200040f575050508311620003f6575b5050811b01815562000108565b8d015160001983861b60f8161c191690553880620003e9565b948482949597989293960151815501940192019087949392918f8d90620003d6565b82600052886000208480840160051c8201928b851062000472575b0160051c019085905b82811062000465575050620000e0565b6000815501859062000455565b925081926200044c565b634e487b7160e01b600052602260045260246000fd5b92607f1692620000cb565b600080fd5b601f909101601f19168101906001600160401b038211908210176200039c57604052565b60005b838110620004da5750506000910152565b8181015183820152602001620004c9565b81601f820112156200049d5780516001600160401b0381116200039c576040519262000522601f8301601f191660200185620004a2565b818452602082840101116200049d57620005439160208085019101620004c6565b90565b805160209081811015620005c45750601f8251116200058257808251920151908083106200057357501790565b82600019910360031b1b161790565b604490620005b69260405193849263305a27a960e01b845280600485015282519283918260248701528686019101620004c6565b601f01601f19168101030190fd5b906001600160401b0382116200039c57600654926001938481811c91168015620006e3575b838210146200047c57601f8111620006a9575b5081601f84116001146200063d575092829391839260009462000631575b50501b916000199060031b1c19161760065560ff90565b0151925038806200061a565b919083601f198116600660005284600020946000905b888383106200068e575050501062000674575b505050811b0160065560ff90565b015160001960f88460031b161c1916905538808062000666565b85870151885590960195948501948793509081019062000653565b600660005284601f84600020920160051c820191601f860160051c015b828110620006d6575050620005fc565b60008155018590620006c6565b90607f1690620005e9565b8051602090818110156200071b5750601f8251116200058257808251920151908083106200057357501790565b906001600160401b0382116200039c57600754926001938481811c911680156200083a575b838210146200047c57601f811162000800575b5081601f841160011462000794575092829391839260009462000788575b50501b916000199060031b1c19161760075560ff90565b01519250388062000771565b919083601f198116600760005284600020946000905b88838310620007e55750505010620007cb575b505050811b0160075560ff90565b015160001960f88460031b161c19169055388080620007bd565b858701518855909601959485019487935090810190620007aa565b600760005284601f84600020920160051c820191601f860160051c015b8281106200082d57505062000753565b600081550185906200081d565b90607f16906200074056fe6080604081815260048036101561001557600080fd5b600092833560e01c90816306fdde031461083557508063095ea7b31461080b57806318160ddd146107ec57806323b872dd146107af578063313ce567146107935780633644e5151461076f57806340c10f19146106c057806342966c68146106a257806370a082311461066b578063715018a61461060e57806379cc6790146105db5780637ecebe00146105a357806384b0196e146104845780638da5cb5b1461045b57806395d89b411461036c578063a9059cbb1461033b578063d505accf146101d3578063dd62ed3e146101865763f2fde38b146100f457600080fd5b346101825760203660031901126101825761010d61094d565b90610116610ce8565b6001600160a01b0391821692831561016c575050600554826bffffffffffffffffffffffff60a01b821617600555167f8be0079c531659141344cd1fd0a4f28419497f9722a3daafe3b4186f6b6457e08380a380f35b51631e4fbdf760e01b8152908101849052602490fd5b8280fd5b5050346101cf57806003193601126101cf57806020926101a461094d565b6101ac610968565b6001600160a01b0391821683526001865283832091168252845220549051908152f35b5080fd5b508290346101cf5760e03660031901126101cf576101ef61094d565b6101f7610968565b906044359260643560843560ff81168103610337578142116103205760018060a01b0390818516928389526008602052898920908154916001830190558a519060208201927f6e71edae12b1b97f4d1f60370fef10105fa2faae0126114a169c64845d6126c98452868d840152858a1660608401528a608084015260a083015260c082015260c0815260e0810181811067ffffffffffffffff82111761030d578b525190206102db916102d2916102ac610bbd565b908c519161190160f01b83526002830152602282015260c43591604260a435922061100a565b9092919261109a565b168181036102f257866102ef878787610db3565b80f35b87516325c0072360e11b815292830152602482015260449150fd5b634e487b7160e01b8b526041875260248bfd5b875163313c898160e11b8152808401839052602490fd5b8680fd5b5050346101cf57806003193601126101cf5760209061036561035b61094d565b6024359033610adf565b5160018152f35b509034610182578260031936011261018257805183819490845461038f8161097e565b91828552602096600192886001821691826000146104315750506001146103d6575b85886103d2896103c3848a03856109ea565b5192828493845283019061090d565b0390f35b815286935091907f8a35acfbc15ff81a39ae7d344fd709f28e8600b4aa8c65c6b64bfe7fe36bd19b5b82841061041957505050820101816103c36103d2386103b1565b8054848a0186015288955087949093019281016103ff565b60ff19168882015294151560051b870190940194508593506103c392506103d291503890506103b1565b5050346101cf57816003193601126101cf5760055490516001600160a01b039091168152602090f35b5090346101825782600319360112610182576104bf7f0000000000000000000000000000000000000000000000000000000000000000610e46565b926104e97f0000000000000000000000000000000000000000000000000000000000000000610f4a565b90825192602092602085019585871067ffffffffffffffff8811176105905750926020610546838896610539998b9996528686528151998a99600f60f81b8b5260e0868c015260e08b019061090d565b91898303908a015261090d565b924660608801523060808801528460a088015286840360c088015251928381520193925b82811061057957505050500390f35b83518552869550938101939281019260010161056a565b634e487b7160e01b845260419052602483fd5b5050346101cf5760203660031901126101cf5760209181906001600160a01b036105cb61094d565b1681526008845220549051908152f35b5050346101cf5736600319011261060b576102ef6105f761094d565b60243590610606823383610a0c565b610d14565b80fd5b833461060b578060031936011261060b57610627610ce8565b600580546001600160a01b0319811690915581906001600160a01b03167f8be0079c531659141344cd1fd0a4f28419497f9722a3daafe3b4186f6b6457e08280a380f35b5050346101cf5760203660031901126101cf5760209181906001600160a01b0361069361094d565b16815280845220549051908152f35b8382346101cf5760203660031901126101cf576102ef903533610d14565b5090346101825780600319360112610182576106da61094d565b90602435916106e7610ce8565b6001600160a01b031692831561075a5760025490838201809211610747575084927fddf252ad1be2c89b69c2b068fc378daa952ba7f163c4a11628f55a4df523b3ef9260209260025585855284835280852082815401905551908152a380f35b634e487b7160e01b865260119052602485fd5b84602492519163ec442f0560e01b8352820152fd5b5050346101cf57816003193601126101cf5760209061078c610bbd565b9051908152f35b5050346101cf57816003193601126101cf576020905160128152f35b5050346101cf5760603660031901126101cf576020906103656107d061094d565b6107d8610968565b604435916107e7833383610a0c565b610adf565b5050346101cf57816003193601126101cf576020906002549051908152f35b5050346101cf57806003193601126101cf5760209061036561082b61094d565b6024359033610db3565b8484346101cf57816003193601126101cf5782826003546108558161097e565b90818452602095600191876001821691826000146108e657505060011461088a575b5050506103d292916103c39103856109ea565b9190869350600383527fc2575a0e9e593c00f959f8c92f12db2869c3395a3b0502d05e2516446f71f85b5b8284106108ce57505050820101816103c36103d2610877565b8054848a0186015288955087949093019281016108b5565b60ff19168782015293151560051b860190930193508492506103c391506103d29050610877565b919082519283825260005b848110610939575050826000602080949584010152601f8019910116010190565b602081830181015184830182015201610918565b600435906001600160a01b038216820361096357565b600080fd5b602435906001600160a01b038216820361096357565b90600182811c921680156109ae575b602083101461099857565b634e487b7160e01b600052602260045260246000fd5b91607f169161098d565b6040810190811067ffffffffffffffff8211176109d457604052565b634e487b7160e01b600052604160045260246000fd5b90601f8019910116810190811067ffffffffffffffff8211176109d457604052565b9160018060a01b038093169160009383855260016020526040938486209183169182875260205284862054926000198403610a4b575b50505050505050565b848410610aaf57508015610a97578115610a7f57855260016020528385209085526020520391205538808080808080610a42565b8451634a1406b160e11b815260048101879052602490fd5b845163e602df0560e01b815260048101879052602490fd5b8551637dc7a0d960e11b81526001600160a01b039190911660048201526024810184905260448101859052606490fd5b916001600160a01b03808416928315610ba45716928315610b8b5760009083825281602052604082205490838210610b59575091604082827fddf252ad1be2c89b69c2b068fc378daa952ba7f163c4a11628f55a4df523b3ef958760209652828652038282205586815220818154019055604051908152a3565b60405163391434e360e21b81526001600160a01b03919091166004820152602481019190915260448101839052606490fd5b60405163ec442f0560e01b815260006004820152602490fd5b604051634b637e8f60e11b815260006004820152602490fd5b307f00000000000000000000000000000000000000000000000000000000000000006001600160a01b03161480610cbf575b15610c18577f000000000000000000000000000000000000000000000000000000000000000090565b60405160208101907f8b73c3c69bb8fe3d512ecc4cf759cc79239f7b179b0ffacaa9a75d522b39400f82527f000000000000000000000000000000000000000000000000000000000000000060408201527f000000000000000000000000000000000000000000000000000000000000000060608201524660808201523060a082015260a0815260c0810181811067ffffffffffffffff8211176109d45760405251902090565b507f00000000000000000000000000000000000000000000000000000000000000004614610bef565b6005546001600160a01b03163303610cfc57565b60405163118cdaa760e01b8152336004820152602490fd5b906001600160a01b038216908115610ba45760009282845283602052604084205490828210610d815750817fddf252ad1be2c89b69c2b068fc378daa952ba7f163c4a11628f55a4df523b3ef926020928587528684520360408620558060025403600255604051908152a3565b60405163391434e360e21b81526001600160a01b03919091166004820152602481019190915260448101829052606490fd5b6001600160a01b03908116918215610e2d5716918215610e145760207f8c5be1e5ebec7d5bd14f71427d1e84f3dd0314c0f7b2291e5b200ac8c7c3b925918360005260018252604060002085600052825280604060002055604051908152a3565b604051634a1406b160e11b815260006004820152602490fd5b60405163e602df0560e01b815260006004820152602490fd5b60ff8114610e845760ff811690601f8211610e725760405191610e68836109b8565b8252602082015290565b604051632cd44ac360e21b8152600490fd5b50604051600654816000610e978361097e565b80835292602090600190818116908115610f265750600114610ec5575b5050610ec2925003826109ea565b90565b91509260066000527ff652222313e28459528d920b65115c16c04f3efc82aaedc97be59f3f377c0d3f936000925b828410610f0e5750610ec29450505081016020013880610eb4565b85548785018301529485019486945092810192610ef3565b91505060209250610ec294915060ff191682840152151560051b8201013880610eb4565b60ff8114610f6c5760ff811690601f8211610e725760405191610e68836109b8565b50604051600754816000610f7f8361097e565b80835292602090600190818116908115610f265750600114610fa9575050610ec2925003826109ea565b91509260076000527fa66cc928b5edb82af9bd49922954155ab7b0942694bea4ce44661d9a8736c688936000925b828410610ff25750610ec29450505081016020013880610eb4565b85548785018301529485019486945092810192610fd7565b91907f7fffffffffffffffffffffffffffffff5d576e7357a4501ddfe92f46681b20a0841161108e57926020929160ff608095604051948552168484015260408301526060820152600092839182805260015afa156110825780516001600160a01b0381161561107957918190565b50809160019190565b604051903d90823e3d90fd5b50505060009160039190565b600481101561110957806110ac575050565b600181036110c65760405163f645eedf60e01b8152600490fd5b600281036110e75760405163fce698f760e01b815260048101839052602490fd5b6003146110f15750565b602490604051906335e2f38360e21b82526004820152fd5b634e487b7160e01b600052602160045260246000fdfea2646970667358221220dce0b183142b3bb2ada0822b6b718f6c565aab003650a41815faa62afbee890464736f6c63430008180033","linkReferences":{}},"methodIdentifiers":{"DOMAIN_SEPARATOR()":"3644e515","allowance(address,address)":"dd62ed3e","approve(address,uint256)":"095ea7b3","balanceOf(address)":"70a08231","burn(uint256)":"42966c68","burnFrom(address,uint256)":"79cc6790","decimals()":"313ce567","eip712Domain()":"84b0196e","mint(address,uint256)":"40c10f19","name()":"06fdde03","nonces(address)":"7ecebe00","owner()":"8da5cb5b","permit(address,address,uint256,uint256,uint8,bytes32,bytes32)":"d505accf","renounceOwnership()":"715018a6","symbol()":"95d89b41","totalSupply()":"18160ddd","transfer(address,uint256)":"a9059cbb","transferFrom(address,address,uint256)":"23b872dd","transferOwnership(address)":"f2fde38b"},"id":45}