{"abi":[{"type":"constructor","inputs":[],"stateMutability":"nonpayable"},{"type":"function","name":"addDurbar","inputs":[{"name":"durbarName","type":"string","internalType":"string"},{"name":"baseToken","type":"address","internalType":"address"},{"name":"wrapToken","type":"address","internalType":"address"},{"name":"liqToken","type":"address","internalType":"address"},{"name":"feeRateToWrappers100","type":"uint256","internalType":"uint256"},{"name":"feeRateToLPsIn100","type":"uint256","internalType":"uint256"},{"name":"feeRateToDevIn100","type":"uint256","internalType":"uint256"}],"outputs":[],"stateMutability":"nonpayable"},{"type":"function","name":"getAssociatedTokensForDurbar","inputs":[{"name":"durbarName","type":"string","internalType":"string"}],"outputs":[{"name":"","type":"address[3]","internalType":"address[3]"}],"stateMutability":"view"},{"type":"function","name":"getCreationTimeForDurbar","inputs":[{"name":"durbarName","type":"string","internalType":"string"}],"outputs":[{"name":"","type":"uint256","internalType":"uint256"}],"stateMutability":"view"},{"type":"function","name":"getFeesForDurbar","inputs":[{"name":"durbarName","type":"string","internalType":"string"}],"outputs":[{"name":"","type":"uint256[3]","internalType":"uint256[3]"}],"stateMutability":"view"},{"type":"function","name":"getStakedLPandRewardInfoForUser","inputs":[{"name":"durbarName","type":"string","internalType":"string"},{"name":"user","type":"address","internalType":"address"}],"outputs":[{"name":"","type":"uint256[2]","internalType":"uint256[2]"}],"stateMutability":"view"},{"type":"function","name":"getTVLforDurbars","inputs":[{"name":"durbarNames","type":"string[]","internalType":"string[]"}],"outputs":[{"name":"","type":"uint256[][]","internalType":"uint256[][]"}],"stateMutability":"view"},{"type":"function","name":"getTotalLPrewardsAndStakedLPAmountForDurbar","inputs":[{"name":"durbarName","type":"string","internalType":"string"}],"outputs":[{"name":"","type":"uint256[2]","internalType":"uint256[2]"}],"stateMutability":"view"},{"type":"function","name":"getWrapTokenRatioForDurbar","inputs":[{"name":"durbarName","type":"string","internalType":"string"}],"outputs":[{"name":"","type":"uint256","internalType":"uint256"}],"stateMutability":"view"},{"type":"function","name":"stakeLiq","inputs":[{"name":"durbarName","type":"string","internalType":"string"},{"name":"amount","type":"uint256","internalType":"uint256"}],"outputs":[],"stateMutability":"nonpayable"},{"type":"function","name":"supportedDurbars","inputs":[{"name":"","type":"string","internalType":"string"}],"outputs":[{"name":"baseToken","type":"address","internalType":"address"},{"name":"wrapToken","type":"address","internalType":"address"},{"name":"liqToken","type":"address","internalType":"address"},{"name":"balanceBaseToken","type":"uint256","internalType":"uint256"},{"name":"mintedWrap","type":"uint256","internalType":"uint256"},{"name":"feeRateToWrappers100","type":"uint256","internalType":"uint256"},{"name":"feeRateToLPsIn100","type":"uint256","internalType":"uint256"},{"name":"feeRateToDevIn100","type":"uint256","internalType":"uint256"},{"name":"exists","type":"bool","internalType":"bool"},{"name":"t","type":"uint256","internalType":"uint256"},{"name":"s","type":"uint256","internalType":"uint256"},{"name":"accumulatedLPfees","type":"uint256","internalType":"uint256"},{"name":"accumulatedDevfees","type":"uint256","internalType":"uint256"},{"name":"accumulatedWrapperfees","type":"uint256","internalType":"uint256"},{"name":"durbarCreatedAt","type":"uint256","internalType":"uint256"}],"stateMutability":"view"},{"type":"function","name":"unStakeLiq","inputs":[{"name":"durbarName","type":"string","internalType":"string"},{"name":"amount","type":"uint256","internalType":"uint256"}],"outputs":[],"stateMutability":"nonpayable"},{"type":"function","name":"unwrapDurbar","inputs":[{"name":"durbarName","type":"string","internalType":"string"},{"name":"amount","type":"uint256","internalType":"uint256"}],"outputs":[],"stateMutability":"nonpayable"},{"type":"function","name":"wrapDurbar","inputs":[{"name":"durbarName","type":"string","internalType":"string"},{"name":"amount","type":"uint256","internalType":"uint256"}],"outputs":[],"stateMutability":"nonpayable"},{"type":"error","name":"MathOverflowedMulDiv","inputs":[]}],"bytecode":{"object":"0x6080806040523461002857600080546001600160a01b03191633179055611687908161002e8239f35b600080fdfe6080604052600436101561001257600080fd5b6000803560e01c80634c1636c114610e9c578063550a03d314610cdb57806355b3bf7814610c985780636273cd9b14610acb57806362854c8314610a0e578063709e45d6146109145780638909c4ce1461073d5780639f8d2801146106c0578063a01c51ed146104db578063b2cb343814610424578063d909db1614610353578063d971ec6b1461030c5763ec4603ec146100ac57600080fd5b34610309576100ba36611178565b6100d260ff60086100ca856111a9565b015416611282565b6100db8261121b565b91336000526020928352604060002054156102d2576100f98161121b565b33600052835260406000205480920361029557670de0b6b3a7640000610149610143600a610126856111a9565b0154610131856111e2565b33600052875260406000205490611363565b84611399565b049161016181600961015a856111a9565b0154611363565b600961016c846111a9565b01556101778261121b565b3360005284528460406000205561018d826111e2565b3360005284528460406000205560018060a01b0392836101ac846111a9565b5460405163a9059cbb60e01b808252336004830152602482019490945295918791879160449183918c91165af194851561028a576101f787956002926102239861026d575b506111a9565b015460405192835233600484015260248301939093529093849291909116908290879082906044820190565b03925af1801561026257610235578280f35b8161025492903d1061025b575b61024c81836110e6565b8101906112c7565b5038808280f35b503d610242565b6040513d85823e3d90fd5b61028390883d8a1161025b5761024c81836110e6565b50386101f1565b6040513d89823e3d90fd5b60405162461bcd60e51b815260048101849052601560248201527421b0b71037b7363c903ab739ba30b5b29030b6361760591b6044820152606490fd5b60405162461bcd60e51b815260048101849052600f60248201526e2737ba3434b7339039ba30b5b2b21760891b6044820152606490fd5b80fd5b503461030957602036600319011261030957600435906001600160401b038211610309576020600e6103496103443660048701611107565b6111a9565b0154604051908152f35b503461030957604036600319011261030957600435906001600160401b038211610309576104206103873660048501611107565b670de0b6b3a76400006103ff6103f961039e611162565b93604080516103ac816110cb565b3690376103b88161121b565b9460018060a01b03169485600052602052604060002054946103e6600a6103de846111a9565b0154926111e2565b9060005260205260406000205490611363565b83611399565b046040519161040d836110cb565b8252602082015260405191829182611254565b0390f35b5034610309576020806003193601126104d7576004356001600160401b0381116104d35761045783913690600401611107565b916060604051610466816110b0565b36903760076104a16040519461047b866110b0565b6005610486826111a9565b015486526006610495826111a9565b015460208701526111a9565b0154604084015260405192839092905b600382106104be57606085f35b828060019286518152019401910190926104b1565b8280fd5b5080fd5b50346103095760209081600319360112610309576001600160401b03916004358381116104d357366023820112156104d3578060040135906024948083116106ad576005918360051b9060405194610535878401876110e6565b85528786860192820101923684116106a957888201925b84841061067f575050505050835b82518110156105e9578381831b840101516003610576826111a9565b01549061058283611370565b51908151156105d4576009928761059a9301526111a9565b0154906105a681611370565b51918251600110156105bf57604060019301520161055a565b87634e487b7160e01b60005260326004526000fd5b88634e487b7160e01b60005260326004526000fd5b8484604051918183928301818452606051809152604084019160408260051b86010193608093815b84831061061e5787870388f35b91939583959750603f9391931989820301845287519082808351928381520192019084905b808210610666575050509080600192980193019301909287969593949294610611565b9193806001929486518152019401920187939291610643565b83358281116106a557889161069a83928d3691880101611107565b81520193019261054c565b8980fd5b8780fd5b634e487b7160e01b855260416004528585fd5b503461030957602036600319011261030957600435906001600160401b038211610309576104206106f43660048501611107565b60408051610701816110cb565b369037600961072a60405192610716846110cb565b600b610721826111a9565b015484526111a9565b0154602082015260405191829182611254565b5034610309578061074d36611178565b9061075e60ff60086100ca846111a9565b6001600160a01b0391826001610773846111a9565b015416803b156109105760405163079cc67960e41b8152336004820152602481018390529085908290604490829084905af19081156109055785916108e8575b50509060209261087f6108226108af9461084a6107ea60036107d4886111a9565b015460046107e1896111a9565b015490846114d3565b9161087a6107f88885611549565b805161085d60408d840151930151948b600b610828610822878361081b866111a9565b01546112df565b926111a9565b01558b60036108506108228b61084a8885610842886111a9565b015492611363565b90611363565b0155600461015a8d6111a9565b60046108688c6111a9565b01556108748a836115eb565b506112df565b6112df565b5460405163a9059cbb60e01b81523360048201526024810193909352919485939190921691839182906044820190565b03925af180156108dd576108c1575080f35b6108d99060203d60201161025b5761024c81836110e6565b5080f35b6040513d84823e3d90fd5b6108f490939293611087565b610900579083386107b3565b505050fd5b6040513d87823e3d90fd5b8480fd5b503461030957602036600319011261030957600435906001600160401b0382116103095750610947903690600401611107565b610950906111a9565b600160a01b60019003908181541690826001820154169260028201541660038201546004830154600584015460068501546007860154600887015460ff1691600988015493600a89015495600b8a015497600c8b015499600d8c01549b600e01549c6040519e8f91825260208201526040015260608d015260808c015260a08b015260c08a015260e089015215156101008801526101208701526101408601526101608501526101808401526101a08301526101c08201526101e090f35b5034610309576020806003193601126104d7576004356001600160401b0381116104d357610a4183913690600401611107565b6060604051610a4f816110b0565b36903760405192610a5f846110b0565b6001600160a01b039081610a72846111a9565b54168552816002610a98600195836001610a8b836111a9565b01541660208a01526111a9565b015416604086015260405193849590955b60038710610ab657606086f35b81518416815295840195908201908201610aa9565b50346103095780610adb36611178565b90610aec60ff60086100ca846111a9565b6001600160a01b039081610aff826111a9565b546040516323b872dd60e01b8152336004820152306024820152604481018690529291602091849160649183918a91165af190811561090557600192610bdf92610c79575b50610bcd610b81610b558388611549565b9661084a8851986040602082015191015190610b7187826115eb565b610c54575061087a8b5b8b6112df565b6004610b8c846111a9565b0154610c3057610bc781975b610ba789600461081b886111a9565b6004610bb2876111a9565b01556003610bbf866111a9565b0154926112df565b906112df565b6003610bd8836111a9565b01556111a9565b01541690813b15610c2c576040516340c10f1960e01b8152336004820152602481019190915291908290604490829084905af180156108dd57610c20575080f35b610c2990611087565b80f35b5050fd5b610bc7610c4e6004610c41866111a9565b015460036107e1876111a9565b97610b98565b80610c6761087a92600b61081b8b6111a9565b600b610c728a6111a9565b0155610b7b565b610c919060203d60201161025b5761024c81836110e6565b5038610b44565b503461030957602036600319011261030957600435906001600160401b038211610309576020610cd3610cce3660048601611107565b611302565b604051908152f35b503461030957610cea36611178565b610cfa60ff60086100ca856111a9565b610d03826111e2565b9033845260209182526040842054610e4d57610d1e8361121b565b33855282526040842054610dea576001600160a01b036002610d3f856111a9565b01546040516323b872dd60e01b81523360048201523060248201526044810184905292918491849160649183918a91165af190811561090557600993610dc89361082293610dcd575b50610d928661121b565b3388528152816040882055600a610da8876111a9565b015490610db4876111e2565b903389525260408720558361081b866111a9565b015580f35b610de390823d841161025b5761024c81836110e6565b5038610d88565b60405162461bcd60e51b815260048101839052603560248201527f4e6565647320756e7374616b65206265666f72652072657374616b6520287374604482015274616b65644c6971546f6b656e42616c616e6365732960581b6064820152608490fd5b60405162461bcd60e51b815260048101839052602160248201527f4e6565647320756e7374616b65206265666f72652072657374616b65202873306044820152602960f81b6064820152608490fd5b50346103095760e0366003190112610309576001600160401b036004358181116104d357610ece903690600401611107565b610ed6611162565b6044356001600160a01b03811690819003610910576064356001600160a01b038116929083900361108357604051946101e086019081118682101761106f5792610f9292600e95926101c09560405260018060a01b031687526020870152604086015285606086015285608086015260843560a086015260a43560c086015260c43560e0860152600161010086015285610120860152856101408601528561016086015285610180860152856101a086015242838601526111a9565b9260018060a01b038151166bffffffffffffffffffffffff60a01b90818654161785556001850160018060a01b0360208401511682825416179055600285019060018060a01b0360408401511690825416179055606081015160038501556080810151600485015560a0810151600585015560c0810151600685015560e0810151600785015560088401610100820151151560ff801983541691161790556101208101516009850155610140810151600a850155610160810151600b850155610180810151600c8501556101a0810151600d850155015191015580f35b634e487b7160e01b87526041600452602487fd5b8580fd5b6001600160401b03811161109a57604052565b634e487b7160e01b600052604160045260246000fd5b606081019081106001600160401b0382111761109a57604052565b604081019081106001600160401b0382111761109a57604052565b90601f801991011681019081106001600160401b0382111761109a57604052565b81601f8201121561115d578035906001600160401b03821161109a576040519261113b601f8401601f1916602001856110e6565b8284526020838301011161115d57816000926020809301838601378301015290565b600080fd5b602435906001600160a01b038216820361115d57565b604060031982011261115d57600435906001600160401b03821161115d576111a291600401611107565b9060243590565b604051908181519160005b8381106111cd5750506020918101600181520301902090565b602082820181015186830152859350016111b4565b604051908181519160005b8381106112065750506020918101600381520301902090565b602082820181015186830152859350016111ed565b604051908181519160005b83811061123f5750506020918101600281520301902090565b60208282018101518683015285935001611226565b6040810192916000915b6002831061126b57505050565b60019082518152602080910192019201919061125e565b1561128957565b60405162461bcd60e51b8152602060048201526016602482015275223ab93130b9103237b2b9903737ba1032bc34b9ba1760511b6044820152606490fd5b9081602091031261115d5751801515810361115d5790565b919082018092116112ec57565b634e487b7160e01b600052601160045260246000fd5b600461130d826111a9565b015415801561134f575b61134257806003611337600461132f61133f956111a9565b0154926111a9565b0154906113cc565b90565b50670de0b6b3a764000090565b50600361135b826111a9565b015415611317565b919082039182116112ec57565b6060518110156113835760051b60800190565b634e487b7160e01b600052603260045260246000fd5b818102929181159184041417156112ec57565b81156113b6570490565b634e487b7160e01b600052601260045260246000fd5b90670de0b6b3a764000080830291906000198482099383808610950394808603951461145d578483111561144b5782910981600003821680920460028082600302188083028203028083028203028083028203028083028203028083028203028092029003029360018380600003040190848311900302920304170290565b60405163227bc15360e01b8152600490fd5b50509061133f92506113ac565b9080820290600019818409908280831092039180830392146114c857612710908282111561144b577fbc01a36e2eb1c432ca57a786c226809d495182a9930be0ded288ce703afb7e91940990828211900360fc1b910360041c170290565b505061271091500490565b9091828202916000198482099383808610950394808603951461145d578483111561144b5782910981600003821680920460028082600302188083028203028083028203028083028203028083028203028083028203028092029003029360018380600003040190848311900302920304170290565b906060604051611558816110b0565b3690376115746005611569836111a9565b015460011c8361146a565b9161159d6115866006611569856111a9565b916007611592856111a9565b015460011c9061146a565b916115ad83600c61081b846111a9565b600c6115b8836111a9565b0155600d6115cd610822868361081b866111a9565b0155604051926115dc846110b0565b83526020830152604082015290565b60096115f6836111a9565b0154611603575050600090565b600a61160e836111a9565b0154670de0b6b3a7640000918281029281840414901517156112ec5761082261164a91610bc7600a946009611642886111a9565b0154906113ac565b015560019056fea26469706673582212204e92655d473521a9b597d594c400056647a4416a3d8e264495e83d3017abafe264736f6c63430008180033","linkReferences":{}},"methodIdentifiers":{"addDurbar(string,address,address,address,uint256,uint256,uint256)":"4c1636c1","getAssociatedTokensForDurbar(string)":"62854c83","getCreationTimeForDurbar(string)":"d971ec6b","getFeesForDurbar(string)":"b2cb3438","getStakedLPandRewardInfoForUser(string,address)":"d909db16","getTVLforDurbars(string[])":"a01c51ed","getTotalLPrewardsAndStakedLPAmountForDurbar(string)":"9f8d2801","getWrapTokenRatioForDurbar(string)":"55b3bf78","stakeLiq(string,uint256)":"550a03d3","supportedDurbars(string)":"709e45d6","unStakeLiq(string,uint256)":"ec4603ec","unwrapDurbar(string,uint256)":"8909c4ce","wrapDurbar(string,uint256)":"6273cd9b"},"id":19}