{"abi":[{"type":"constructor","inputs":[],"stateMutability":"nonpayable"},{"type":"function","name":"addDurbar","inputs":[{"name":"durbarName","type":"string","internalType":"string"},{"name":"baseToken","type":"address","internalType":"address"},{"name":"wrapToken","type":"address","internalType":"address"},{"name":"liqToken","type":"address","internalType":"address"},{"name":"feeRateToWrappers100","type":"uint256","internalType":"uint256"},{"name":"feeRateToLPsIn100","type":"uint256","internalType":"uint256"},{"name":"feeRateToDevIn100","type":"uint256","internalType":"uint256"}],"outputs":[],"stateMutability":"nonpayable"},{"type":"function","name":"getAssociatedTokensForDurbar","inputs":[{"name":"durbarName","type":"string","internalType":"string"}],"outputs":[{"name":"","type":"address[3]","internalType":"address[3]"}],"stateMutability":"view"},{"type":"function","name":"getCreationTimeForDurbar","inputs":[{"name":"durbarName","type":"string","internalType":"string"}],"outputs":[{"name":"","type":"uint256","internalType":"uint256"}],"stateMutability":"view"},{"type":"function","name":"getFeesForDurbar","inputs":[{"name":"durbarName","type":"string","internalType":"string"}],"outputs":[{"name":"","type":"uint256[3]","internalType":"uint256[3]"}],"stateMutability":"view"},{"type":"function","name":"getStakedLPandRewardInfoForUser","inputs":[{"name":"durbarName","type":"string","internalType":"string"},{"name":"user","type":"address","internalType":"address"}],"outputs":[{"name":"","type":"uint256[2]","internalType":"uint256[2]"}],"stateMutability":"view"},{"type":"function","name":"getTVLforDurbars","inputs":[{"name":"durbarNames","type":"string[]","internalType":"string[]"}],"outputs":[{"name":"","type":"uint256[][]","internalType":"uint256[][]"}],"stateMutability":"view"},{"type":"function","name":"getTotalLPrewardsAndStakedLPAmountForDurbar","inputs":[{"name":"durbarName","type":"string","internalType":"string"}],"outputs":[{"name":"","type":"uint256[2]","internalType":"uint256[2]"}],"stateMutability":"view"},{"type":"function","name":"getWrapTokenRatioForDurbar","inputs":[{"name":"durbarName","type":"string","internalType":"string"}],"outputs":[{"name":"","type":"uint256","internalType":"uint256"}],"stateMutability":"view"},{"type":"function","name":"stakeLiq","inputs":[{"name":"durbarName","type":"string","internalType":"string"},{"name":"amount","type":"uint256","internalType":"uint256"}],"outputs":[],"stateMutability":"nonpayable"},{"type":"function","name":"supportedDurbars","inputs":[{"name":"","type":"string","internalType":"string"}],"outputs":[{"name":"baseToken","type":"address","internalType":"address"},{"name":"wrapToken","type":"address","internalType":"address"},{"name":"liqToken","type":"address","internalType":"address"},{"name":"balanceBaseToken","type":"uint256","internalType":"uint256"},{"name":"mintedWrap","type":"uint256","internalType":"uint256"},{"name":"feeRateToWrappers100","type":"uint256","internalType":"uint256"},{"name":"feeRateToLPsIn100","type":"uint256","internalType":"uint256"},{"name":"feeRateToDevIn100","type":"uint256","internalType":"uint256"},{"name":"exists","type":"bool","internalType":"bool"},{"name":"t","type":"uint256","internalType":"uint256"},{"name":"s","type":"uint256","internalType":"uint256"},{"name":"accumulatedLPfees","type":"uint256","internalType":"uint256"},{"name":"accumulatedDevfees","type":"uint256","internalType":"uint256"},{"name":"accumulatedWrapperfees","type":"uint256","internalType":"uint256"},{"name":"durbarCreatedAt","type":"uint256","internalType":"uint256"}],"stateMutability":"view"},{"type":"function","name":"unStakeLiq","inputs":[{"name":"durbarName","type":"string","internalType":"string"},{"name":"amount","type":"uint256","internalType":"uint256"}],"outputs":[],"stateMutability":"nonpayable"},{"type":"function","name":"unwrapDurbar","inputs":[{"name":"durbarName","type":"string","internalType":"string"},{"name":"amount","type":"uint256","internalType":"uint256"}],"outputs":[],"stateMutability":"nonpayable"},{"type":"function","name":"wrapDurbar","inputs":[{"name":"durbarName","type":"string","internalType":"string"},{"name":"amount","type":"uint256","internalType":"uint256"}],"outputs":[],"stateMutability":"nonpayable"},{"type":"error","name":"MathOverflowedMulDiv","inputs":[]}],"bytecode":{"object":"0x6080806040523461002857600080546001600160a01b03191633179055611644908161002e8239f35b600080fdfe6080604052600436101561001257600080fd5b6000803560e01c80634c1636c114610eb7578063550a03d314610cf657806355b3bf7814610c985780636273cd9b14610acb57806362854c8314610a0e578063709e45d6146109145780638909c4ce1461073d5780639f8d2801146106c0578063a01c51ed146104db578063b2cb343814610424578063d909db1614610353578063d971ec6b1461030c5763ec4603ec146100ac57600080fd5b34610309576100ba36611193565b6100d260ff60086100ca856111c4565b01541661129d565b6100db82611236565b91336000526020928352604060002054156102d2576100f981611236565b33600052835260406000205480920361029557670de0b6b3a7640000610149610143600a610126856111c4565b0154610131856111fd565b3360005287526040600020549061131d565b84611353565b049161016181600961015a856111c4565b015461131d565b600961016c846111c4565b015561017782611236565b3360005284528460406000205561018d826111fd565b3360005284528460406000205560018060a01b0392836101ac846111c4565b5460405163a9059cbb60e01b808252336004830152602482019490945295918791879160449183918c91165af194851561028a576101f787956002926102239861026d575b506111c4565b015460405192835233600484015260248301939093529093849291909116908290879082906044820190565b03925af1801561026257610235578280f35b8161025492903d1061025b575b61024c8183611101565b8101906112e2565b5038808280f35b503d610242565b6040513d85823e3d90fd5b61028390883d8a1161025b5761024c8183611101565b50386101f1565b6040513d89823e3d90fd5b60405162461bcd60e51b815260048101849052601560248201527421b0b71037b7363c903ab739ba30b5b29030b6361760591b6044820152606490fd5b60405162461bcd60e51b815260048101849052600f60248201526e2737ba3434b7339039ba30b5b2b21760891b6044820152606490fd5b80fd5b503461030957602036600319011261030957600435906001600160401b038211610309576020600e6103496103443660048701611122565b6111c4565b0154604051908152f35b503461030957604036600319011261030957600435906001600160401b038211610309576104206103873660048501611122565b670de0b6b3a76400006103ff6103f961039e61117d565b93604080516103ac816110e6565b3690376103b881611236565b9460018060a01b03169485600052602052604060002054946103e6600a6103de846111c4565b0154926111fd565b906000526020526040600020549061131d565b83611353565b046040519161040d836110e6565b825260208201526040519182918261126f565b0390f35b5034610309576020806003193601126104d7576004356001600160401b0381116104d35761045783913690600401611122565b916060604051610466816110cb565b36903760076104a16040519461047b866110cb565b6005610486826111c4565b015486526006610495826111c4565b015460208701526111c4565b0154604084015260405192839092905b600382106104be57606085f35b828060019286518152019401910190926104b1565b8280fd5b5080fd5b50346103095760209081600319360112610309576001600160401b03916004358381116104d357366023820112156104d3578060040135906024948083116106ad576005918360051b906040519461053587840187611101565b85528786860192820101923684116106a957888201925b84841061067f575050505050835b82518110156105e9578381831b840101516003610576826111c4565b0154906105828361132a565b51908151156105d4576009928761059a9301526111c4565b0154906105a68161132a565b51918251600110156105bf57604060019301520161055a565b87634e487b7160e01b60005260326004526000fd5b88634e487b7160e01b60005260326004526000fd5b8484604051918183928301818452606051809152604084019160408260051b86010193608093815b84831061061e5787870388f35b91939583959750603f9391931989820301845287519082808351928381520192019084905b808210610666575050509080600192980193019301909287969593949294610611565b9193806001929486518152019401920187939291610643565b83358281116106a557889161069a83928d3691880101611122565b81520193019261054c565b8980fd5b8780fd5b634e487b7160e01b855260416004528585fd5b503461030957602036600319011261030957600435906001600160401b038211610309576104206106f43660048501611122565b60408051610701816110e6565b369037600961072a60405192610716846110e6565b600b610721826111c4565b015484526111c4565b015460208201526040519182918261126f565b5034610309578061074d36611193565b9061075e60ff60086100ca846111c4565b6001600160a01b0391826001610773846111c4565b015416803b156109105760405163079cc67960e41b8152336004820152602481018390529085908290604490829084905af19081156109055785916108e8575b50509060209261087f6108226108af9461084a6107ea60036107d4886111c4565b015460046107e1896111c4565b01549084611490565b9161087a6107f88885611506565b805161085d60408d840151930151948b600b610828610822878361081b866111c4565b01546112fa565b926111c4565b01558b60036108506108228b61084a8885610842886111c4565b01549261131d565b9061131d565b0155600461015a8d6111c4565b60046108688c6111c4565b01556108748a836115a8565b506112fa565b6112fa565b5460405163a9059cbb60e01b81523360048201526024810193909352919485939190921691839182906044820190565b03925af180156108dd576108c1575080f35b6108d99060203d60201161025b5761024c8183611101565b5080f35b6040513d84823e3d90fd5b6108f4909392936110a2565b610900579083386107b3565b505050fd5b6040513d87823e3d90fd5b8480fd5b503461030957602036600319011261030957600435906001600160401b0382116103095750610947903690600401611122565b610950906111c4565b600160a01b60019003908181541690826001820154169260028201541660038201546004830154600584015460068501546007860154600887015460ff1691600988015493600a89015495600b8a015497600c8b015499600d8c01549b600e01549c6040519e8f91825260208201526040015260608d015260808c015260a08b015260c08a015260e089015215156101008801526101208701526101408601526101608501526101808401526101a08301526101c08201526101e090f35b5034610309576020806003193601126104d7576004356001600160401b0381116104d357610a4183913690600401611122565b6060604051610a4f816110cb565b36903760405192610a5f846110cb565b6001600160a01b039081610a72846111c4565b54168552816002610a98600195836001610a8b836111c4565b01541660208a01526111c4565b015416604086015260405193849590955b60038710610ab657606086f35b81518416815295840195908201908201610aa9565b50346103095780610adb36611193565b90610aec60ff60086100ca846111c4565b6001600160a01b039081610aff826111c4565b546040516323b872dd60e01b8152336004820152306024820152604481018690529291602091849160649183918a91165af190811561090557600192610bdf92610c79575b50610bcd610b81610b558388611506565b9661084a8851986040602082015191015190610b7187826115a8565b610c54575061087a8b5b8b6112fa565b6004610b8c846111c4565b0154610c3057610bc781975b610ba789600461081b886111c4565b6004610bb2876111c4565b01556003610bbf866111c4565b0154926112fa565b906112fa565b6003610bd8836111c4565b01556111c4565b01541690813b15610c2c576040516340c10f1960e01b8152336004820152602481019190915291908290604490829084905af180156108dd57610c20575080f35b610c29906110a2565b80f35b5050fd5b610bc7610c4e6004610c41866111c4565b015460036107e1876111c4565b97610b98565b80610c6761087a92600b61081b8b6111c4565b600b610c728a6111c4565b0155610b7b565b610c919060203d60201161025b5761024c8183611101565b5038610b44565b503461030957602036600319011261030957600435906001600160401b038211610309576020610cee610cce3660048601611122565b6003610ce66004610cde846111c4565b0154926111c4565b015490611386565b604051908152f35b503461030957610d0536611193565b610d1560ff60086100ca856111c4565b610d1e826111fd565b9033845260209182526040842054610e6857610d3983611236565b33855282526040842054610e05576001600160a01b036002610d5a856111c4565b01546040516323b872dd60e01b81523360048201523060248201526044810184905292918491849160649183918a91165af190811561090557600993610de39361082293610de8575b50610dad86611236565b3388528152816040882055600a610dc3876111c4565b015490610dcf876111fd565b903389525260408720558361081b866111c4565b015580f35b610dfe90823d841161025b5761024c8183611101565b5038610da3565b60405162461bcd60e51b815260048101839052603560248201527f4e6565647320756e7374616b65206265666f72652072657374616b6520287374604482015274616b65644c6971546f6b656e42616c616e6365732960581b6064820152608490fd5b60405162461bcd60e51b815260048101839052602160248201527f4e6565647320756e7374616b65206265666f72652072657374616b65202873306044820152602960f81b6064820152608490fd5b50346103095760e0366003190112610309576001600160401b036004358181116104d357610ee9903690600401611122565b610ef161117d565b6044356001600160a01b03811690819003610910576064356001600160a01b038116929083900361109e57604051946101e086019081118682101761108a5792610fad92600e95926101c09560405260018060a01b031687526020870152604086015285606086015285608086015260843560a086015260a43560c086015260c43560e0860152600161010086015285610120860152856101408601528561016086015285610180860152856101a086015242838601526111c4565b9260018060a01b038151166bffffffffffffffffffffffff60a01b90818654161785556001850160018060a01b0360208401511682825416179055600285019060018060a01b0360408401511690825416179055606081015160038501556080810151600485015560a0810151600585015560c0810151600685015560e0810151600785015560088401610100820151151560ff801983541691161790556101208101516009850155610140810151600a850155610160810151600b850155610180810151600c8501556101a0810151600d850155015191015580f35b634e487b7160e01b87526041600452602487fd5b8580fd5b6001600160401b0381116110b557604052565b634e487b7160e01b600052604160045260246000fd5b606081019081106001600160401b038211176110b557604052565b604081019081106001600160401b038211176110b557604052565b90601f801991011681019081106001600160401b038211176110b557604052565b81601f82011215611178578035906001600160401b0382116110b55760405192611156601f8401601f191660200185611101565b8284526020838301011161117857816000926020809301838601378301015290565b600080fd5b602435906001600160a01b038216820361117857565b604060031982011261117857600435906001600160401b038211611178576111bd91600401611122565b9060243590565b604051908181519160005b8381106111e85750506020918101600181520301902090565b602082820181015186830152859350016111cf565b604051908181519160005b8381106112215750506020918101600381520301902090565b60208282018101518683015285935001611208565b604051908181519160005b83811061125a5750506020918101600281520301902090565b60208282018101518683015285935001611241565b6040810192916000915b6002831061128657505050565b600190825181526020809101920192019190611279565b156112a457565b60405162461bcd60e51b8152602060048201526016602482015275223ab93130b9103237b2b9903737ba1032bc34b9ba1760511b6044820152606490fd5b90816020910312611178575180151581036111785790565b9190820180921161130757565b634e487b7160e01b600052601160045260246000fd5b9190820391821161130757565b60605181101561133d5760051b60800190565b634e487b7160e01b600052603260045260246000fd5b8181029291811591840414171561130757565b8115611370570490565b634e487b7160e01b600052601260045260246000fd5b90670de0b6b3a764000080830291906000198482099383808610950394808603951461141757848311156114055782910981600003821680920460028082600302188083028203028083028203028083028203028083028203028083028203028092029003029360018380600003040190848311900302920304170290565b60405163227bc15360e01b8152600490fd5b5050906114249250611366565b90565b908082029060001981840990828083109203918083039214611485576127109082821115611405577fbc01a36e2eb1c432ca57a786c226809d495182a9930be0ded288ce703afb7e91940990828211900360fc1b910360041c170290565b505061271091500490565b9091828202916000198482099383808610950394808603951461141757848311156114055782910981600003821680920460028082600302188083028203028083028203028083028203028083028203028083028203028092029003029360018380600003040190848311900302920304170290565b906060604051611515816110cb565b3690376115316005611526836111c4565b015460011c83611427565b9161155a6115436006611526856111c4565b91600761154f856111c4565b015460011c90611427565b9161156a83600c61081b846111c4565b600c611575836111c4565b0155600d61158a610822868361081b866111c4565b015560405192611599846110cb565b83526020830152604082015290565b60096115b3836111c4565b01546115c0575050600090565b600a6115cb836111c4565b0154670de0b6b3a7640000918281029281840414901517156113075761082261160791610bc7600a9460096115ff886111c4565b015490611366565b015560019056fea2646970667358221220b526096f1fe3a1e038de16e4ee60105dfad48229fb09360c7976e3b95aa580db64736f6c63430008180033","linkReferences":{}},"methodIdentifiers":{"addDurbar(string,address,address,address,uint256,uint256,uint256)":"4c1636c1","getAssociatedTokensForDurbar(string)":"62854c83","getCreationTimeForDurbar(string)":"d971ec6b","getFeesForDurbar(string)":"b2cb3438","getStakedLPandRewardInfoForUser(string,address)":"d909db16","getTVLforDurbars(string[])":"a01c51ed","getTotalLPrewardsAndStakedLPAmountForDurbar(string)":"9f8d2801","getWrapTokenRatioForDurbar(string)":"55b3bf78","stakeLiq(string,uint256)":"550a03d3","supportedDurbars(string)":"709e45d6","unStakeLiq(string,uint256)":"ec4603ec","unwrapDurbar(string,uint256)":"8909c4ce","wrapDurbar(string,uint256)":"6273cd9b"},"id":19}