{"abi":[{"type":"constructor","inputs":[],"stateMutability":"nonpayable"},{"type":"function","name":"addDurbar","inputs":[{"name":"durbarName","type":"string","internalType":"string"},{"name":"baseToken","type":"address","internalType":"address"},{"name":"wrapToken","type":"address","internalType":"address"},{"name":"liqToken","type":"address","internalType":"address"},{"name":"feeRateToWrappers100","type":"uint256","internalType":"uint256"},{"name":"feeRateToLPsIn100","type":"uint256","internalType":"uint256"},{"name":"feeRateToDevIn100","type":"uint256","internalType":"uint256"}],"outputs":[],"stateMutability":"nonpayable"},{"type":"function","name":"getAssociatedTokensForDurbar","inputs":[{"name":"durbarName","type":"string","internalType":"string"}],"outputs":[{"name":"","type":"address[3]","internalType":"address[3]"}],"stateMutability":"view"},{"type":"function","name":"getCreationTimeForDurbar","inputs":[{"name":"durbarName","type":"string","internalType":"string"}],"outputs":[{"name":"","type":"uint256","internalType":"uint256"}],"stateMutability":"view"},{"type":"function","name":"getFeesForDurbar","inputs":[{"name":"durbarName","type":"string","internalType":"string"}],"outputs":[{"name":"","type":"uint256[3]","internalType":"uint256[3]"}],"stateMutability":"view"},{"type":"function","name":"getStakedLPandRewardInfoForUser","inputs":[{"name":"durbarName","type":"string","internalType":"string"},{"name":"user","type":"address","internalType":"address"}],"outputs":[{"name":"","type":"uint256[2]","internalType":"uint256[2]"}],"stateMutability":"view"},{"type":"function","name":"getTVLforDurbars","inputs":[{"name":"durbarNames","type":"string[]","internalType":"string[]"}],"outputs":[{"name":"","type":"uint256[][]","internalType":"uint256[][]"}],"stateMutability":"view"},{"type":"function","name":"getTotalLPrewardsAndStakedLPAmountForDurbar","inputs":[{"name":"durbarName","type":"string","internalType":"string"}],"outputs":[{"name":"","type":"uint256[2]","internalType":"uint256[2]"}],"stateMutability":"view"},{"type":"function","name":"getWrapTokenRatioForDurbar","inputs":[{"name":"durbarName","type":"string","internalType":"string"}],"outputs":[{"name":"","type":"uint256","internalType":"uint256"}],"stateMutability":"view"},{"type":"function","name":"stakeLiq","inputs":[{"name":"durbarName","type":"string","internalType":"string"},{"name":"amount","type":"uint256","internalType":"uint256"}],"outputs":[],"stateMutability":"nonpayable"},{"type":"function","name":"supportedDurbars","inputs":[{"name":"","type":"string","internalType":"string"}],"outputs":[{"name":"baseToken","type":"address","internalType":"address"},{"name":"wrapToken","type":"address","internalType":"address"},{"name":"liqToken","type":"address","internalType":"address"},{"name":"balanceBaseToken","type":"uint256","internalType":"uint256"},{"name":"mintedWrap","type":"uint256","internalType":"uint256"},{"name":"feeRateToWrappers100","type":"uint256","internalType":"uint256"},{"name":"feeRateToLPsIn100","type":"uint256","internalType":"uint256"},{"name":"feeRateToDevIn100","type":"uint256","internalType":"uint256"},{"name":"exists","type":"bool","internalType":"bool"},{"name":"t","type":"uint256","internalType":"uint256"},{"name":"s","type":"uint256","internalType":"uint256"},{"name":"accumulatedLPfees","type":"uint256","internalType":"uint256"},{"name":"accumulatedDevfees","type":"uint256","internalType":"uint256"},{"name":"accumulatedWrapperfees","type":"uint256","internalType":"uint256"},{"name":"durbarCreatedAt","type":"uint256","internalType":"uint256"}],"stateMutability":"view"},{"type":"function","name":"unStakeLiq","inputs":[{"name":"durbarName","type":"string","internalType":"string"},{"name":"amount","type":"uint256","internalType":"uint256"}],"outputs":[],"stateMutability":"nonpayable"},{"type":"function","name":"unwrapDurbar","inputs":[{"name":"durbarName","type":"string","internalType":"string"},{"name":"amount","type":"uint256","internalType":"uint256"}],"outputs":[],"stateMutability":"nonpayable"},{"type":"function","name":"updateLiqToken","inputs":[{"name":"durbarName","type":"string","internalType":"string"},{"name":"liqToken","type":"address","internalType":"address"}],"outputs":[],"stateMutability":"nonpayable"},{"type":"function","name":"wrapDurbar","inputs":[{"name":"durbarName","type":"string","internalType":"string"},{"name":"amount","type":"uint256","internalType":"uint256"}],"outputs":[],"stateMutability":"nonpayable"},{"type":"error","name":"MathOverflowedMulDiv","inputs":[]}],"bytecode":{"object":"0x6080806040523461002857600080546001600160a01b03191633179055611750908161002e8239f35b600080fdfe6080604052600436101561001257600080fd5b6000803560e01c80634c1636c114610ecd578063550a03d314610d0c57806355b3bf7814610cc95780636273cd9b14610afc57806362854c8314610a3f578063709e45d6146109455780638909c4ce1461076e5780639f8d2801146106f1578063a01c51ed1461050c578063b2cb343814610455578063bed5b51714610406578063d909db161461035e578063d971ec6b146103175763ec4603ec146100b757600080fd5b34610314576100c536611200565b6100dd60ff60086100d585611231565b01541661134b565b6100e6826112a3565b91336000526020928352604060002054156102dd57610104816112a3565b3360005283526040600020548092036102a057670de0b6b3a764000061015461014e600a61013185611231565b015461013c8561126a565b3360005287526040600020549061142c565b84611462565b049161016c81600961016585611231565b015461142c565b600961017784611231565b0155610182826112a3565b336000528452846040600020556101988261126a565b3360005284528460406000205560018060a01b0392836101b784611231565b5460405163a9059cbb60e01b808252336004830152602482019490945295918791879160449183918c91165af194851561029557610202879560029261022e98610278575b50611231565b015460405192835233600484015260248301939093529093849291909116908290879082906044820190565b03925af1801561026d57610240578280f35b8161025f92903d10610266575b6102578183611184565b810190611390565b5038808280f35b503d61024d565b6040513d85823e3d90fd5b61028e90883d8a11610266576102578183611184565b50386101fc565b6040513d89823e3d90fd5b60405162461bcd60e51b815260048101849052601560248201527421b0b71037b7363c903ab739ba30b5b29030b6361760591b6044820152606490fd5b60405162461bcd60e51b815260048101849052600f60248201526e2737ba3434b7339039ba30b5b2b21760891b6044820152606490fd5b80fd5b503461031457602036600319011261031457600435906001600160401b038211610314576020600e61035461034f36600487016111a5565b611231565b0154604051908152f35b5034610314576104026103db670de0b6b3a76400006103e161037f3661130a565b93906040805161038e81611169565b36903761039a816112a3565b9460018060a01b03169485600052602052604060002054946103c8600a6103c084611231565b01549261126a565b906000526020526040600020549061142c565b83611462565b04604051916103ef83611169565b82526020820152604051918291826112dc565b0390f35b5034610314576104153661130a565b825490916001600160a01b03918216330361045157610435600291611231565b0191166bffffffffffffffffffffffff60a01b82541617905580f35b8380fd5b503461031457602080600319360112610508576004356001600160401b03811161050457610488839136906004016111a5565b9160606040516104978161114e565b36903760076104d2604051946104ac8661114e565b60056104b782611231565b0154865260066104c682611231565b01546020870152611231565b0154604084015260405192839092905b600382106104ef57606085f35b828060019286518152019401910190926104e2565b8280fd5b5080fd5b50346103145760209081600319360112610314576001600160401b03916004358381116105045736602382011215610504578060040135906024948083116106de576005918360051b906040519461056687840187611184565b85528786860192820101923684116106da57888201925b8484106106b0575050505050835b825181101561061a578381831b8401015160036105a782611231565b0154906105b383611439565b519081511561060557600992876105cb930152611231565b0154906105d781611439565b51918251600110156105f057604060019301520161058b565b87634e487b7160e01b60005260326004526000fd5b88634e487b7160e01b60005260326004526000fd5b8484604051918183928301818452606051809152604084019160408260051b86010193608093815b84831061064f5787870388f35b91939583959750603f9391931989820301845287519082808351928381520192019084905b808210610697575050509080600192980193019301909287969593949294610642565b9193806001929486518152019401920187939291610674565b83358281116106d65788916106cb83928d36918801016111a5565b81520193019261057d565b8980fd5b8780fd5b634e487b7160e01b855260416004528585fd5b503461031457602036600319011261031457600435906001600160401b0382116103145761040261072536600485016111a5565b6040805161073281611169565b369037600961075b6040519261074784611169565b600b61075282611231565b01548452611231565b01546020820152604051918291826112dc565b5034610314578061077e36611200565b9061078f60ff60086100d584611231565b6001600160a01b03918260016107a484611231565b015416803b156109415760405163079cc67960e41b8152336004820152602481018390529085908290604490829084905af1908115610936578591610919575b5050906020926108b06108536108e09461087b61081b600361080588611231565b0154600461081289611231565b0154908461159c565b916108ab6108298885611612565b805161088e60408d840151930151948b600b610859610853878361084c86611231565b01546113a8565b92611231565b01558b60036108816108538b61087b888561087388611231565b01549261142c565b9061142c565b015560046101658d611231565b60046108998c611231565b01556108a58a836116b4565b506113a8565b6113a8565b5460405163a9059cbb60e01b81523360048201526024810193909352919485939190921691839182906044820190565b03925af1801561090e576108f2575080f35b61090a9060203d602011610266576102578183611184565b5080f35b6040513d84823e3d90fd5b61092590939293611125565b610931579083386107e4565b505050fd5b6040513d87823e3d90fd5b8480fd5b503461031457602036600319011261031457600435906001600160401b03821161031457506109789036906004016111a5565b61098190611231565b600160a01b60019003908181541690826001820154169260028201541660038201546004830154600584015460068501546007860154600887015460ff1691600988015493600a89015495600b8a015497600c8b015499600d8c01549b600e01549c6040519e8f91825260208201526040015260608d015260808c015260a08b015260c08a015260e089015215156101008801526101208701526101408601526101608501526101808401526101a08301526101c08201526101e090f35b503461031457602080600319360112610508576004356001600160401b03811161050457610a72839136906004016111a5565b6060604051610a808161114e565b36903760405192610a908461114e565b6001600160a01b039081610aa384611231565b54168552816002610ac9600195836001610abc83611231565b01541660208a0152611231565b015416604086015260405193849590955b60038710610ae757606086f35b81518416815295840195908201908201610ada565b50346103145780610b0c36611200565b90610b1d60ff60086100d584611231565b6001600160a01b039081610b3082611231565b546040516323b872dd60e01b8152336004820152306024820152604481018690529291602091849160649183918a91165af190811561093657600192610c1092610caa575b50610bfe610bb2610b868388611612565b9661087b8851986040602082015191015190610ba287826116b4565b610c8557506108ab8b5b8b6113a8565b6004610bbd84611231565b0154610c6157610bf881975b610bd889600461084c88611231565b6004610be387611231565b01556003610bf086611231565b0154926113a8565b906113a8565b6003610c0983611231565b0155611231565b01541690813b15610c5d576040516340c10f1960e01b8152336004820152602481019190915291908290604490829084905af1801561090e57610c51575080f35b610c5a90611125565b80f35b5050fd5b610bf8610c7f6004610c7286611231565b0154600361081287611231565b97610bc9565b80610c986108ab92600b61084c8b611231565b600b610ca38a611231565b0155610bac565b610cc29060203d602011610266576102578183611184565b5038610b75565b503461031457602036600319011261031457600435906001600160401b038211610314576020610d04610cff36600486016111a5565b6113cb565b604051908152f35b503461031457610d1b36611200565b610d2b60ff60086100d585611231565b610d348261126a565b9033845260209182526040842054610e7e57610d4f836112a3565b33855282526040842054610e1b576001600160a01b036002610d7085611231565b01546040516323b872dd60e01b81523360048201523060248201526044810184905292918491849160649183918a91165af190811561093657600993610df99361085393610dfe575b50610dc3866112a3565b3388528152816040882055600a610dd987611231565b015490610de58761126a565b903389525260408720558361084c86611231565b015580f35b610e1490823d8411610266576102578183611184565b5038610db9565b60405162461bcd60e51b815260048101839052603560248201527f4e6565647320756e7374616b65206265666f72652072657374616b6520287374604482015274616b65644c6971546f6b656e42616c616e6365732960581b6064820152608490fd5b60405162461bcd60e51b815260048101839052602160248201527f4e6565647320756e7374616b65206265666f72652072657374616b65202873306044820152602960f81b6064820152608490fd5b50346103145760e0366003190112610314576001600160401b0360043581811161050457610eff9036906004016111a5565b6024356001600160a01b03811690819003610451576044356001600160a01b03811690819003610941576064356001600160a01b03811692908390036111215785546001600160a01b0316330361112157600160ff6008610f5f87611231565b0154161515146110e357604051946101e08601908111868210176110cf5792610ff292600e95926101c09560405287526020870152604086015285606086015285608086015260843560a086015260a43560c086015260c43560e0860152600161010086015285610120860152856101408601528561016086015285610180860152856101a08601524283860152611231565b9260018060a01b038151166bffffffffffffffffffffffff60a01b90818654161785556001850160018060a01b0360208401511682825416179055600285019060018060a01b0360408401511690825416179055606081015160038501556080810151600485015560a0810151600585015560c0810151600685015560e0810151600785015560088401610100820151151560ff801983541691161790556101208101516009850155610140810151600a850155610160810151600b850155610180810151600c8501556101a0810151600d850155015191015580f35b634e487b7160e01b87526041600452602487fd5b60405162461bcd60e51b8152602060048201526016602482015275223ab93130b91032bc34b9ba399030b63932b0b23c9760511b6044820152606490fd5b8580fd5b6001600160401b03811161113857604052565b634e487b7160e01b600052604160045260246000fd5b606081019081106001600160401b0382111761113857604052565b604081019081106001600160401b0382111761113857604052565b90601f801991011681019081106001600160401b0382111761113857604052565b81601f820112156111fb578035906001600160401b03821161113857604051926111d9601f8401601f191660200185611184565b828452602083830101116111fb57816000926020809301838601378301015290565b600080fd5b60406003198201126111fb57600435906001600160401b0382116111fb5761122a916004016111a5565b9060243590565b604051908181519160005b8381106112555750506020918101600181520301902090565b6020828201810151868301528593500161123c565b604051908181519160005b83811061128e5750506020918101600381520301902090565b60208282018101518683015285935001611275565b604051908181519160005b8381106112c75750506020918101600281520301902090565b602082820181015186830152859350016112ae565b6040810192916000915b600283106112f357505050565b6001908251815260208091019201920191906112e6565b60406003198201126111fb57600435906001600160401b0382116111fb57611334916004016111a5565b906024356001600160a01b03811681036111fb5790565b1561135257565b60405162461bcd60e51b8152602060048201526016602482015275223ab93130b9103237b2b9903737ba1032bc34b9ba1760511b6044820152606490fd5b908160209103126111fb575180151581036111fb5790565b919082018092116113b557565b634e487b7160e01b600052601160045260246000fd5b60046113d682611231565b0154158015611418575b61140b5780600361140060046113f861140895611231565b015492611231565b015490611495565b90565b50670de0b6b3a764000090565b50600361142482611231565b0154156113e0565b919082039182116113b557565b60605181101561144c5760051b60800190565b634e487b7160e01b600052603260045260246000fd5b818102929181159184041417156113b557565b811561147f570490565b634e487b7160e01b600052601260045260246000fd5b90670de0b6b3a764000080830291906000198482099383808610950394808603951461152657848311156115145782910981600003821680920460028082600302188083028203028083028203028083028203028083028203028083028203028092029003029360018380600003040190848311900302920304170290565b60405163227bc15360e01b8152600490fd5b5050906114089250611475565b908082029060001981840990828083109203918083039214611591576127109082821115611514577fbc01a36e2eb1c432ca57a786c226809d495182a9930be0ded288ce703afb7e91940990828211900360fc1b910360041c170290565b505061271091500490565b9091828202916000198482099383808610950394808603951461152657848311156115145782910981600003821680920460028082600302188083028203028083028203028083028203028083028203028083028203028092029003029360018380600003040190848311900302920304170290565b9060606040516116218161114e565b36903761163d600561163283611231565b015460011c83611533565b9161166661164f600661163285611231565b91600761165b85611231565b015460011c90611533565b9161167683600c61084c84611231565b600c61168183611231565b0155600d611696610853868361084c86611231565b0155604051926116a58461114e565b83526020830152604082015290565b60096116bf83611231565b01546116cc575050600090565b600a6116d783611231565b0154670de0b6b3a7640000918281029281840414901517156113b55761085361171391610bf8600a94600961170b88611231565b015490611475565b015560019056fea2646970667358221220506ad0a33fd00c0e30a7149f62b2a1d6b5e47ad31ee1b1ec552b85fb75fbe0c564736f6c63430008180033","linkReferences":{}},"methodIdentifiers":{"addDurbar(string,address,address,address,uint256,uint256,uint256)":"4c1636c1","getAssociatedTokensForDurbar(string)":"62854c83","getCreationTimeForDurbar(string)":"d971ec6b","getFeesForDurbar(string)":"b2cb3438","getStakedLPandRewardInfoForUser(string,address)":"d909db16","getTVLforDurbars(string[])":"a01c51ed","getTotalLPrewardsAndStakedLPAmountForDurbar(string)":"9f8d2801","getWrapTokenRatioForDurbar(string)":"55b3bf78","stakeLiq(string,uint256)":"550a03d3","supportedDurbars(string)":"709e45d6","unStakeLiq(string,uint256)":"ec4603ec","unwrapDurbar(string,uint256)":"8909c4ce","updateLiqToken(string,address)":"bed5b517","wrapDurbar(string,uint256)":"6273cd9b"},"id":19}